:100000000C94290E0C94460E0C94460E0C94460E3D
:100010000C94460E0C94460E0C94460E0C94460E10
:100020000C94460E0C94460E0C94460E0C94460E00
:100030000C94460E0C94460E0C94460E0C94460EF0
:100040000C94460E0C94460E0C94460E0C94460EE0
:100050000C94460E2046726565204D656D6F727971
:100060003A2000546F74616C204D656D6F72793A5F
:1000700020004572726F7220696E20676574746922
:100080006E6720636C757374657200456E64206FD3
:100090006620436C757374657220436861696E00F5
:1000A0002046696C65204372656174656421002097
:1000B00046696C6520617070656E6465642100201E
:1000C0004E6F206672656520636C7573746572216E
:1000D0000020456E74657220746578742028656E02
:1000E000642077697468207E293A00204E6F20666C
:1000F00072656520636C75737465722100204372AC
:10010000656174696E672046696C652E2E0020203B
:1001100046696C6520616C726561647920657869F7
:100120007374696E672C20617070656E64696E67A8
:1001300020646174612E2E00496E76616C696420C2
:1001400066696C654E616D652E2E004572726F7228
:1001500020696E2067657474696E6720636C7573BF
:10016000746572004572726F7220696E20676574E3
:1001700074696E6720636C757374657200524F4FBB
:100180005400444952002020200046494C4500209C
:1001900020200046696C652064656C657465642187
:1001A0000044656C6574696E672E2E0046696C6547
:1001B00020646F6573206E6F742065786973742195
:1001C000007461901A000080808080808080808030
:1001D000808080808080808080808080808080801F
:1001E000808080808080808080808080808080800F
:1001F00080808080808080808080808080808080FF
:1002000080808080808080808080808080808080EE
:100420008080808080808080807F80807F807F7FD0
:10043000807F7F807F80807F807F7F7F7F7F7F7FC7
:100440007F7F7F7F7F7F807F7F807F807F7F807FB8
:1004500080808080808082818084817F857F80838E
:100460007F8083817F84828084818283898A828C59
:10047000878089827E827C7D7E797C7A77797875A7
:10048000767976787B7E83868D9092959494928E01
:100490008B88837F7B7366594A3E385E60549592A1
:1004A00089B7AC99A6917B7F6C656C6B73798796E5
:1004B0009AA7ADA6A99E8E877B747073787B878E72
:1004C0009096948D887D71685C575250595E68781B
:1004D0007E8A9A9F9DA1A0918F8B81808280858D3D
:1004E0008C9397948E8973545632214245446A8E78
:1004F0008AABBFB1B5AD968C877470777376858DF6
:1005000093A1A8A6A4A39889857B706E6A5C565CAB
:100510004A43525D6B6F89978E9FA097978F88880B
:100520007F7E837F868B8D989DA3A8A5A1988C7BC9
:100530006B5549442A28394A5D6E939FA6B6B4ABE1
:10054000A4968682747076767D87929FAAB2B5B1A2
:10055000AA9B8976634E443E2B252D3D5B6B81A281
:10056000A7ADBAB0A69E8D837870707279838C9C8B
:10057000A9B2BCB8B4AA9685715B4B453828272D23
:100580003E5E6C7FA4A5ABBBAEA79D8C84766F73DB
:10059000737C8892A2B1BABEBCB4A6917D68514862
:1005A0003D2822212A495A6B8F9CA5B6B6B2AA9C37
:1005B0009284777573777E8695A2AEB7B9B8AFA1EE
:1005C000907B67544A3E2C2529364D5871938D9F58
:1005D000B5A9ADABA099888383797D84858F98A3D5
:1005E000A8A6ABA5958B7D6C5D5A574C494A525ACB
:1005F0005B66727579858C909598999490908E8CA5
:100600008B8E908F9293908D8C87827F7D7B787973
:100610007B79767473737270706F6E6F70727578A9
:100620007C8082858788898B8D8F908F8F8E8C8B35
:100630008A88878685848483838281807F7E7D7B90
:100640007A78757372706F6F70727375787A7C7E5A
:1006500081838587888A8B8B8B8B8A8A898887861A
:1006600085848483828180807F7F7E7D7D7C7B7B8F
:100670007A7A7A7A7A7A7A7B7C7C7D7E7F808081B6
:100680008282828383838383828282828181818149
:100690008180808080808080808080808080808059
:1006A000808080808080808080808080808080804A
:1006B0008081818181818181818080808080808032
:1006C0008080808080807F7F7F7F7F7F7F7F7F7F34
:1006D0007F8080808080808080808080808080801B
:1006E0008181818181818180808080808080808003
:1006F00080808080808080808080808080808080FA
:1007000080808080808080808080808080808080E9
:1007100080808080808080808080808080808080D9
:1007200080808080808080808080808080808080C9
:1007300080808080808080808080808080808080B9
:1007400080808080808080808080808080808080A9
:100750008080808080808080808080808080808099
:100760008080808080808080808080808080808089
:100770008080808080808080808080808080808079
:100780008080808080808080808080808080808069
:1007900080808080808080808081807F8182807F57
:1007A00080807F7F80807F8080808080808080804C
:1007B0008080807F80808080807F8080808080803B
:1007C0008080808080808080808080808080808029
:1007D000807F808080808080808080808180808019
:1007E00080808081817F80807F8080808080808009
:1007F0008080808080807F808080808081807F80FA
:10080000807F8180818180807F817F807F7F8080E9
:1008100081808180808080807F80808080808280D5
:10082000817F80807F7F80817F818081807F8080C9
:100830007E82817F7F8080807E81818080818180B7
:100840007F8081807E8080817F8280817D817F7FAB
:10085000817E837D8380827E827E7F808181817E96
:1008600080827D817F817E807C818182837D7E808C
:10087000817E827F82817E827F7D7D82807F817F7B
:10088000837D7F8180807F807F827E7E7D7F81816E
:100890008280827E8280838280807D817E827F8250
:1008A000827F8080827F827E82827D808082818042
:1008B0007D7F827D817F8184807F7E827E80817F3B
:1008C000827F807F807E7F837E817E7C83807F802D
:1008D000817F827F7B857F81847F8180807C817E18
:1008E0007F837B81838282808181817980827E8205
:1008F0007E7F84827D81827D817B7C84807D8181FD
:100900008083817C81817F827F8084817D80827FE2
:100910007E80817F7E7F80817E7F8282817E8182D8
:100920007F807F8081808082827F808080817F7EC7
:1009300080827F808181817F80807F7F7F818081B5
:100940008181807E807F7E81818081818080807FA7
:10095000807F80807F7F808180807F808180807F9A
:100960007F80818080808081808080818180808084
:100970007F7F80808081807F808180807F7F818178
:10098000807F7F808181808081818080817F808065
:1009900080808080808080807F7F7F80807F80805B
:1009A000807F7E8080818080808180818180818144
:1009B00080808081818080808180807F8080818034
:1009C0007F7F7F7F80808080807F80808080807F2D
:1009D0007F80818080808080808180808080808016
:1009E0008080808080808080808080808080808007
:1009F00080808080807F7F808080808080808180F8
:100A000080808081808080808080808180808080E4
:100A1000807F7F7F80808080807F7F8081818080D9
:100A200080808181818080818181818080808080BF
:100A3000808080807F80807F7F7F7F7F7F7F8080BE
:100A400080808080808080808080818181818181A0
:100A5000818181818180808081818080807F7F8091
:100A6000807F7F7F7F7F7F7F7F7F7F7F7F7F808093
:100A70008081818181818081818182818080818169
:100A80008181818080808080807F7F7F7F7F7F7F6A
:100A90007F7F7F7F7E7E7F7F7F7F8080808081825F
:100AA000828282828282828282828181818181812C
:100AB000807F7D7D7D7D7C7C7C7C7D7D7D7D7D7E64
:100AC0007F808181828283848484848485858585F6
:100AD00084838383838281807E7C7C7C7B7A79772C
:100AE00076777979797A7C7E81848586868787890D
:100AF0008A8B8B8A898A8B8B8B89858281807F7B8D
:100B0000756F6B6865625D595C697B8A91928F8CA9
:100B10008D92969289817D7F88939A9B98959391E7
:100B2000908D857B736E6B69665F544B4B586F84F9
:100B3000929998918C8E908D88837B7579858F970B
:100B40009B9A94909091908B8378706F7377777164
:100B500063554C48536D87949895918F94989387DB
:100B60007B73737E8D9696939191959A998E8178E9
:100B700073757A7C7870685E585450556981909787
:100B800098959191928C817773757F8C94949191C3
:100B900093959692887D78797B7D7E7B76726E6761
:100BA0005E544A516C8A999A959292979A8F7C6F6B
:100BB0006F798793958E8A90999C988D7F76777EB2
:100BC000817C7775777A796F5E52484B6282939019
:100BD0008B8E979C9C8F7A6B6E7D888C8B8A8B9486
:100BE0009FA09487807E8082807A767B83858076C2
:100BF0006B615B524D5A778E939293989998907E41
:100C00006F6D788287888A8D949B9C928781818181
:100C1000807C78767C84868179726B645A4C4961D9
:100C20008496938D919A9E9889756A71808886853D
:100C30008B949C9F978A828386817975767C848841
:100C4000857D78767266594B4354789695898A9B50
:100C5000A49C89746A6D7C8583808998A19E958DFA
:100C600087868782787379838786848483827C7081
:100C70006257534D526A8B98928F99A29A89786ED7
:100C80006D747F838389969F9D958E8985807D79FC
:100C90007679808686858586827B736A625B554D10
:100CA000506A8E9E958C94A19D89756C6E77828614
:100CB000858A99A4A091888888827B78797E8589A5
:100CC00088848486847B716A66635E564E56769805
:100CD0009F8E8692A0967D6C6B737C838688909C99
:100CE000A2998A8487878078787E85898988868892
:100CF000888379706E6D6A635D57576B8B9E9485A0
:100D000089999C856F6C767D7E82888F969B988C66
:100D10008384878379767E86888585888885807AAE
:100D20007470706D6964615C5A6D8C9F9384889A4D
:100D30009C85706F7A8182838890979A9489838644
:100D40008882797A83898683848887827C787572A1
:100D50006F6A68656259586F929F8D7F8B9F9B7EEB
:100D60006C717F837F808A9399989188868A898025
:100D7000777C868B8684878B89817B787674706B91
:100D80006664625B5A71929C8A7F8D9F977B6C74BC
:100D900080807D7F889297958D85868B877D7880F2
:100DA00088888282888A86807C7976726E6A676497
:100DB0005F575E7B9797858397A29077717C837F3F
:100DC0007C818B9496928B898D8C837B7D848581AD
:100DD0008085898884817D7975706B6764605754DC
:100DE0006888978A818FA39C82757B8380797A83B8
:100DF0008E95938C8B92938A7E7E8486817E81866B
:100E00008987837E7D7B766D6867645B535D7A90AE
:100E10008B80899DA08D7D7C83827B767A868F8F67
:100E20008A8A92958E83818585807D7E8386858260
:100E30007F7F7F7B736D6C6962595A6D83867F8279
:100E4000939E9587838788827A7880898A86868E22
:100E5000939089868786837F7D7E8183817E7F8153
:100E60007E787473716C676367737D7D7B828E920D
:100E70008C88898C89827E7F8284838184898B8916
:100E80008687878682807F7F80807E7E7F807E7C53
:100E90007C7C7B7978787878797A7C7D7E7E80819D
:100EA000818181828281818181818181818282822D
:100EB00082828282828282828281818080807F7F20
:100EC0007F7F7F7F7F7F7F7F7F7F8080808080802C
:100ED0008081818181818181818181818181818103
:100EE000818181808080808080807F7F7F7F7F7F05
:100EF0007F7F7F7F7F7F7F7F7F7F808080808080FC
:100F000080808080808080808080808080808080E1
:100F100080808080808080808080808080808080D1
:100F200080808080808080808080808080808080C1
:100F300080808080808080808080808080808080B1
:100F400080808080808080808080808080808080A1
:100F50008080808080808080808080808080808091
:100F60008080808080808080808080808080808081
:100F70008080808080808080808080808080808071
:100F80008080808080808080808080808080808061
:100F90008080808080808080808080808080808051
:100FA0008080808080808080808080808080808041
:100FB0008080808080808080808080808080808031
:100FC0008080808080808080808080808080808021
:100FD0008080808080808080808080808080808011
:100FE0008080808080808080808080808080808001
:100FF00080808080808080808080808080808080F1
:1010000080808080808080808080808080808083DD
:1010100084817E7E7F7F7F7F7F80808181818081D0
:1010200081818C7C7285837780857C7B7F8F8275C4
:101030008F85748486767C837F827F7D82837E80A9
:10104000837D7E827E7D81807D81807E80807F7FAA
:101050008181817F7F8082847F7F817E7F827F7E8E
:1010600081807F81817F818083878080827F7E7F76
:101070007E7D7F7F7F80808081817F80807F7F7E7B
:101080007F7F7F807F80808181818181818182815A
:10109000828281818181818181818080807F7F7F47
:1010A0007E7E7E7D7E7D7C7D7B7B7D7B7C7E7C7F72
:1010B00080808282838584858685868685868685EE
:1010C0008685858583838380817F7D7D7A79787528
:1010D00075737071706F72717479797F84868C8E7C
:1010E0008F93929292908F8E8B8C8B8A8B8B8A8B24
:1010F000888785817D78726C665F5B55545758622E
:1011000069707F858E99989D9D9797908B89848330
:1011100085868B9193989A9999948F8A837D77731A
:101120006F6C6C6A6867615E5D5D5E63696D787F38
:101130008793969A9E9998958D8B86818383848ACE
:101140008C90949494948F8B89817F7C7777747240
:1011500073716F6C66615E5C5B60656C767E8892B5
:10116000969C9C9A98928D888381808285898E92A4
:1011700095989696928D8A837F7C7676737173713B
:101180006F6D67625F5B5B5E616A717B858D959950
:101190009B9B97958F8B88848485878C8F9396975C
:1011A0009795928D88837E7A767371706F6E6D6A73
:1011B00066605D5B5B60646B757C878F959A9B99BD
:1011C00097938F8B878686878A8D90949696969331
:1011D0008F8C86817F7A78777374736F716D686690
:1011E0005F5D5D5D63697079818A8F949795969252
:1011F0008D8D878687858A8C8E9394949593918E16
:101200008A85827F7B7B7977787473746D6B685E77
:101210005F5B5A62646E777D888D91969493928D10
:101220008B88868786898D8F9395969794928F8ADF
:1012300087837F7E7B7A7A79787674726E6A65604E
:101240005E5B5E626670777F888C90939292908CE2
:101250008B888788888A8D8F9395969694928F8AAB
:1012600087837F7E7C7B7B79797875736F6B666112
:101270005E5B5B5F656B757C838B8E919390908ECC
:101280008A8A8787898A8D919295979696938F8C73
:101290008884817E7D7B7A7B7979797673706A65C3
:1012A000615C5C5C60686D777F848D8F91938F8EBD
:1012B0008C88888786898A8D919396979695928F48
:1012C0008C8784817E7D7C7B7C7B7A797874716C61
:1012D00066645F5E5F60676C737B80878B8D908ECA
:1012E0008E8C8A89878889898D8E91949495949122
:1012F000908C898782817F7D7F7D7C7C7A797874F0
:10130000726E696763626263676C71787E82888AD5
:101310008B8D8B8B8A878888878B8B8D919194940A
:101320009393908E8C88868381807F7E7D7C7B7A70
:10133000797775726E6A6663626264686C72787DD2
:101340008286898B8C8B8B8A898988898A8C8E90FE
:101350009293939392908E8B88858381807F7F7EFA
:101360007D7C7B7A7876736F6C6965646464686B86
:1013700070767A808486898A8A8B89898988898A25
:101380008B8E8F9092929392908F8C89878482819A
:10139000807F7E7E7D7B7A797775726E6B686664FE
:1013A00064666A6D72777B80838689898A89898978
:1013B00088898A8A8D8D8F9191929190908D8B8959
:1013C000878583828180807F7D7C7B79787573704F
:1013D0006C6A67666667696C7074787D80848688DD
:1013E000898A8A8A8A8A8B8B8C8D8E8F9090909036
:1013F0008F8E8C8A888684838281807F7E7D7B7AB3
:10140000787674726F6C69686767686B6E72767AEB
:101410007E828587898A8A8A8A8A8B8B8C8C8D8F3B
:101420008F9090908F8E8D8B89878583828180802D
:101430007F7E7C7B7A787673706D6B686766676A8F
:101440006D7074797D8184868889898989898A8A81
:101450008B8C8D8E8F8F90908F8E8D8B89878684CD
:1014600082818180807F7E7D7B7A7775736F6D6BE3
:10147000686767686B6E72767A7E828486888889F0
:10148000898989898A8B8C8D8E8F8F90908F8E8C95
:101490008A8987858382818180807F7E7D7B797741
:1014A0007572706D6B6A6A696A6C7073767A7D802A
:1014B0008385868788888989898A8B8C8C8D8E8E96
:1014C0008F8E8E8D8B8A8887858483828180807FB2
:1014D0007E7D7B7A78767472706E6C6B6A6B6C6EE4
:1014E0007175787C80838586878889898989898ACE
:1014F0008B8B8C8D8E8E8E8E8D8C8A898786848345
:1015000082818180807F7E7C7B79787573716F6D3D
:101510006C6B6B6C6E7073777A7D80838586878841
:1015200088888989898A8B8C8D8E8E8E8E8D8D8B05
:101530008A88878584828181807F7E7D7C7B7977A4
:101540007573716F6D6C6C6C6D6E7174777B7E8171
:10155000838586878888888889898A8B8C8D8E8EFA
:101560008E8E8D8C8B89888684838180807F7E7D22
:101570007C7B7A79777572716F6E6D6D6D6E6F723F
:1015800076797C7F828486878788898989898A8A17
:101590008B8C8D8E8E8E8D8C8B89888684838180BA
:1015A0007F7F7E7D7C7B7A79787674737170706FC3
:1015B0006F70717274777A7D808284868788898A59
:1015C0008A8A8B8B8C8C8D8D8D8D8C8C8B8988866B
:1015D0008482817F7E7D7C7B7A7978777674737262
:1015E0007171707171727476787B7D808284868768
:1015F00088898A8A8B8B8B8B8C8C8C8C8C8B8B893F
:101600008887858381807F7E7D7C7B7B7B7A7977F1
:101610007675747272727272737475787A7C7E8069
:10162000828485878788898A8A8B8B8C8C8C8C8C2A
:101630008C8B8A8987858482817F7E7D7C7B7A7989
:101640007878777675747473737373747577797B40
:101650007E808284858687888889898989898A8A23
:101660008A8A8A8A89888786848381807F7E7D7C36
:101670007C7B7B7A797978777776767676767777EA
:10168000787A7B7D7E808182838485868687878841
:1016900088888989898988888887868584838281E2
:1016A000807F7E7D7C7B7B7B7A7979787877777792
:1016B00077787878787A7B7C7E7F81828384848552
:1016C00086868687878788888888888787868585AD
:1016D000838281807F7F7E7D7D7D7C7C7C7C7C7C29
:1016E0007B7A7A79797979797A7A7B7D7E7F808144
:1016F00082828283838383848484858585858685AD
:1017000085858483838282818080807F7F7F7F7EC6
:101710007E7E7E7E7D7D7C7C7B7B7B7B7B7B7C7C05
:101720007D7E7F80808080818181818282828383AF
:10173000848485858585848483828281818080807C
:101740008080808080807F7F7E7E7D7D7D7D7D7DB1
:101750007D7D7D7E7E7F7F80808080808080808098
:101760008080818181818182828282828281818165
:101770008180808181818181818180808080808061
:101780007F7F7E7E7E7E7E7F7F7F7F7F7F7F7F7F6E
:101790008080808080808080818181818181818141
:1017A0008180808080808080808081818180808035
:1017B00080807F80808080808080807F7F8080802C
:1017C0008080808080808080808080808080808019
:1017D0008080808080808080808080808080808009
:1017E00080808080808080808080808080808080F9
:1017F00080808080808080808080808080808080E9
:101C5000800011241FBECFE5D8E0DEBFCDBF10E06D
:101C6000A0E6B0E0EAE3FEE302C005900D92A23FD9
:101C7000B107D9F713E0A2EFB0E001C01D92A7357C
:101C8000B107E1F70E945F0E0C941B1F0C9400003B
:101C90009FEF9BBB9ABB8FEE88BB8FEB87BB15BAC0
:101CA0008FE084BB12BA91BB0895F8940E94480E4D
:101CB0000E94D61C0E941D1B15BE1BBE08952F92AC
:101CC0003F924F925F926F927F928F929F92AF92CC
:101CD000BF92CF92DF92EF92FF920F931F93CF9319
:101CE000DF9388EE93E02CE231E0F9013197F1F7D0
:101CF0000197D9F70E94550E81E061E040E650E07F
:101D00000E94FB1A82E061E04BE650E00E94FB1A61
:101D100010922F03C0E0D0E00E945C1C882361F089
:101D20002196CA30D105C1F7813029F461E049E735
:101D300050E00E94FB1AFFCF80E58DB9709A88EBC6
:101D40009BE00197F1F70E94FF1220E137E28CE25D
:101D5000282E81E0382E05C0C1010197F1F72150EE
:101D6000304021153105C1F7A0900C01B0900D0154
:101D7000C0900E01D0900F01C601B5010E94490F1D
:101D80002B013C01EE24FF24870159C0C801B70193
:101D9000640D751D861D971D0E942B1C8824992497
:101DA00041C0E401C25EDE4F8881882309F442C04D
:101DB000853EA1F18B858F3089F120E030E0F9017B
:101DC000E05DFC4FDE01A20FB31F8C9180832F5F7B
:101DD0003F4F2B30310599F781E061E040E353E05C
:101DE0000E94FB1A82E061E045E850E00E94FB1A85
:101DF0009E9912C081E061E040E353E00E94FB1A2B
:101E000082E061E046E950E00E94FB1A80E060E376
:101E100073E00E945D1602C09F99EACF80E290E0D5
:101E2000880E991E809106019091070188169906E7
:101E300008F4B7CF0894E11CF11C011D111D80911D
:101E40001E0390911F03A0E0B0E0E816F9060A0710
:101E50001B0708F49BCF97EFA9169FEFB9069FEFDA
:101E6000C9069FE0D90690F4A114B104C104D104BD
:101E700009F082CF81E061E047EA50E00E94FB1A5E
:101E800082E061E048EB50E00E94FB1A20E137E27B
:101E900063CFEF92FF920F931F9320911E03309117
:101EA0001F03E090FE00F090FF00009100011091F0
:101EB0000101625070408040904040E050E00E943C
:101EC000661D9B01AC012E0D3F1D401F511FB90126
:101ED000CA011F910F91FF90EF9008958F929F92EA
:101EE000AF92BF92CF92DF92EF92FF920F93DF9368
:101EF000CF93CDB7DEB764970FB6F894DEBF0FBEB1
:101F0000CDBF982E6A017B01DE011196E8ECF0E06E
:101F100084E101900D928150E1F70CE08CE2882E73
:101F2000053011F0093029F4FE01E00FF11D808227
:101F300001505E01A00EB11CC701B6012AE030E0DD
:101F400040E050E00E94851D6063F5016083C70199
:101F5000B6012AE030E040E050E00E94851DC90152
:101F6000DA016C017D01C114D104E104F10411F026
:101F70000150B1F6F1E09F1611F48BE48E87CE018B
:101F800001960E94071D64960FB6F894DEBF0FBE3F
:101F9000CDBFCF91DF910F91FF90EF90DF90CF9069
:101FA000BF90AF909F908F9008950F931F93DF93F2
:101FB000CF93CDB7DEB72B970FB6F894DEBF0FBE29
:101FC000CDBF8C01582FA12FFC0140E080818E32C3
:101FD00019F4493030F00EC04F5F31964C30B1F7F4
:101FE00009C0BE016F5F7F4F852F9A2F9C01F901B9
:101FF000DB0108C088E391E00E94FD1C81E052C033
:1020000081918D938E2F851B8417D0F3842F9E0191
:102010002F5F3F4F90E205C0F901E80FF11D90835B
:102020008F5F8830C9F7242F2F5FAE014F5F5F4F5E
:1020300030E2F801E20FF11D9081992359F0FA0185
:10204000E80FF11D90832F5F07C0FA01E80FF11D23
:1020500030838F5F8B30C8F38F5F8B3050F39E01DE
:10206000245F3F4FFB019081892F81568A3110F404
:10207000905290836F5F7F4F6217730799F720E04C
:1020800030E0AE014F5F5F4FF801E20FF31FDA015E
:10209000A20FB31F8C9180832F5F3F4F2B303105F0
:1020A00099F780E02B960FB6F894DEBF0FBECDBF38
:1020B000CF91DF911F910F9108956F927F928F9230
:1020C0009F92AF92BF92CF92DF92EF92FF920F93C7
:1020D0001F9360783B014C0122E0660C771C881C42
:1020E000991C2A95D1F75B016C0150C0E09029033F
:1020F000F0902A03209106013091070100E010E0E2
:102100008091200390912103A0912203B091230399
:10211000E80EF91E0A1F1B1F40E050E0C401B30186
:102120000E94851DE20EF31E041F151FC801B70192
:102130000E942B1C60E0E62FF0E0EE0FFF1FEE0F79
:10214000FF1FE25EFE4F80819181A281B381BF704B
:102150000097A105B10539F4A6019501260F311D9F
:10216000411D511D25C06F5F603829F780E890E060
:10217000A0E0B0E0A80EB91ECA1EDB1E80E092E00F
:10218000A0E0B0E0680E791E8A1E9B1E80910801B7
:1021900090910901A0910A01B0910B01A816B9060E
:1021A000CA06DB0608F4A2CF20E030E040E050E0B1
:1021B000B901CA011F910F91FF90EF90DF90CF906E
:1021C000BF90AF909F908F907F906F900895CF9227
:1021D000DF92EF92FF920F931F93D82EC62E7901B4
:1021E0008A016091200370912103809122039091D4
:1021F00023036F5F7F4F8F4F9F4F0E942B1C809157
:102200001E0190911F01A0912001B09121018255E2
:102210009245A146B14409F054C0809102039091C7
:102220000303A0910403B091050382579247A14490
:10223000B14609F046C080911A0390911B03A0910A
:102240001C03B0911D0380509040A545BA4AC9F5C2
:10225000CC20A9F481E0D81649F4209106033091EE
:10226000070340910803509109032FC020910A03EE
:1022700030910B0340910C0350910D0326C021E0D7
:10228000D21649F4E0920603F09207030093080384
:102290001093090308C0E0920A03F0920B03009325
:1022A0000C0310930D036091200370912103809122
:1022B0002203909123036F5F7F4F8F4F9F4F0E94A8
:1022C000DD1B2FEF3FEF4FEF5FEFB901CA011F9109
:1022D0000F91FF90EF90DF90CF900895DF92EF92F3
:1022E000FF920F931F93D82EDB01CA01E9E0B69548
:1022F000A79597958795EA95D1F7517060707070A2
:10230000411551056105710519F4AC01BD0106C007
:10231000AC01BD014F5F5F4F6F4F7F4FDB01CA01C3
:1023200033E0B695A795979587953A95D1F747707D
:10233000507060707070411551056105710519F498
:102340007C018D0107C07C018D010894E11CF11C0A
:10235000011D111D80913D038823D9F081E060E0CB
:1023600020E030E040E050E00E94E710DD2039F44A
:102370009B01AC012E0D3F1D401F511F06C09B014C
:10238000AC012E193F09400B510B81E061E00E9426
:10239000E7101F910F91FF90EF90DF9008952F921B
:1023A0003F924F925F926F927F928F929F92AF92E5
:1023B000BF92CF92DF92EF92FF920F931F932091E3
:1023C00008013091090140910A0150910B0160917F
:1023D0001E0370911F0380E090E00E94661D5B0168
:1023E0006C011AE0D694C794B794A7941A95D1F7C4
:1023F000E0900601F09007018DE00E94F91C8AE050
:102400000E94F91C8DE00E94F91C8AE00E94F91CD0
:1024100083E690E00E94FD1C00E010E0C601B501DB
:10242000A80197010E94661DAB01BC0181E00E94DA
:102430006E0F81E060E020E030E040E050E00E947C
:10244000E7103B014C018091080190910901A09196
:102450000A01B0910B0186159705A805B90508F08A
:102460007CC010923D03A0900C01B0900D01C09073
:102470000E01D0900F01B2E0AA0CBB1CCC1CDD1CDD
:10248000BA95D1F76624772443012224332421010D
:10249000E0902903F0902A03209106013091070172
:1024A00000E010E08091200390912103A09122038D
:1024B000B0912303E80EF91E0A1F1B1F40E050E0F5
:1024C000C601B5010E94851DE20EF31E041F151FF3
:1024D000C801B7010E942B1CA201910160E070E0CD
:1024E000FB01E25EFE4F80819181A281B381BF70CA
:1024F0000097A105B10529F40894611C711C811C89
:10250000911C2F5F3F4F4F4F5F4F8091080190917B
:102510000901A0910A01B0910B010296A11DB11D04
:10252000281739074A075B07C1F0C90182199309C7
:102530006C5F7F4F02E06030700791F6E12CA2E003
:10254000FA2E012D112DAE0CBF1CC01ED11E8038DD
:10255000910518F019012A019BCF80913D03882332
:1025600031F481E061E0A40193010E94E71081E071
:1025700080933D0320911E0330911F0340E050E003
:10258000C401B3010E94661D5B016C01FAE0D694A0
:10259000C794B794A794FA95D1F7E0900601F0900C
:1025A00007018DE00E94F91C8AE00E94F91C84E575
:1025B00090E00E94FD1C00E010E0C601B501A801FA
:1025C00097010E94661DAB01BC0181E00E946E0F65
:1025D0008DE00E94F91C8AE00E94F91C1F910F9166
:1025E000FF90EF90DF90CF90BF90AF909F908F9033
:1025F0007F906F905F904F903F902F9008956F92D3
:102600007F928F929F92AF92BF92CF92DF92EF9282
:10261000FF920F931F9310922003109221031092A8
:1026200022031092230360E070E080E090E00E94BB
:102630002B1C80911E01893E19F18B3E09F180917E
:102640001C0390911D0385559A4A09F0B0C0609112
:10265000E4027091E5028091E6029091E7026093B6
:1026600020037093210380932203909323030E94FD
:102670002B1C80911E01893E19F08B3E09F097C0FA
:102680008091290190912A0190930701809306017E
:1026900080912B0190E090931F0380931E03A090E4
:1026A0002C01B0902D01B0922A03A09229038091B1
:1026B0004A0190914B01A0914C01B0914D01809342
:1026C0000C0190930D01A0930E01B0930F01E090C7
:1026D0002903F0902A0360912E0170E080E090E0E1
:1026E00020914201309143014091440150914501B4
:1026F0000E94661D3B014C0100E010E080913A0110
:1027000090913B01A0913C01B0913D01E80EF91E72
:102710000A1F1B1FE60CF71C081D191DE092FE0086
:10272000F092FF00009300011093010120911E031D
:1027300030911F03CC24DD2460913E0170913F0154
:1027400080914001909141016A197B098C099D0992
:10275000661977098809990940E050E00E94851DB3
:10276000C901DA018093080190930901A0930A013D
:10277000B0930B0181E060E020E030E040E050E009
:102780000E94E710209108013091090140910A014F
:1027900050910B01261737074807590718F4109274
:1027A0003D0303C081E080933D0380E001C081E0F0
:1027B0001F910F91FF90EF90DF90CF90BF90AF905F
:1027C0009F908F907F906F9008954F925F926F923D
:1027D0007F928F929F92AF92BF92CF92DF92EF92B1
:1027E000FF920F931F93CF93DF935B016C01842EB5
:1027F000280139018091290390912A0302E0AA0C53
:10280000BB1CCC1CDD1C0A95D1F720910601309130
:1028100007017C0100E010E08091200390912103EA
:10282000A0912203B0912303E80EF91E0A1F1B1F7B
:1028300040E050E0C601B5010E94851DE20EF31E86
:10284000041F151FC0910601D09107019924C801EA
:10285000B7010E942B1C882321F093948AE09816DC
:10286000B1F79E0140E050E0C601B5010E94851D10
:10287000FB01E25EFE4F882031F4208131814281EC
:1028800053815F700CC04082518262827382C801A2
:10289000B7010E94DD1B20E030E040E050E0B901CC
:1028A000CA01DF91CF911F910F91FF90EF90DF90C0
:1028B000CF90BF90AF909F908F907F906F905F90E0
:1028C0004F9008952F923F924F925F926F927F9216
:1028D0008F929F92AF92BF92CF92DF92EF92FF9230
:1028E0000F931F93DF93CF93CDB7DEB72A970FB621
:1028F000F894DEBF0FBECDBF8D837F836E83A09023
:102900000C01B0900D01C0900E01D0900F018150CC
:10291000888720911E0330911F03E090FE00F09005
:10292000FF000091000110910101C601B501625044
:1029300070408040904040E050E00E94661D1B01C6
:102940002C012E0C3F1C401E511E6624772443018F
:1029500060C1D401C301820D931DA41DB51D8983DF
:102960009A83AB83BC83BC01CD010E942B1C40E247
:10297000E42EF12C3EC18A01025E1E4FF701E25E99
:10298000FE4FB0978081B096882341F49D8191508D
:10299000923008F068C18CEA91E063C1853E09F489
:1029A00024C1759780818F3009F41FC1A885A2309A
:1029B00008F0D2C020E030E0C801820F931FAE8142
:1029C000BF81A20FB31FFC0190818C91981709F071
:1029D0000CC1822F8F5F2F5F3F4F2B30310561F786
:1029E0008B3009F002C1FD81F13009F03FC08981CF
:1029F0009A81AB81BC8180933E0390933F03A09367
:102A00004003B0934103CA01A0E0B0E08093F60018
:102A10009093F700A093F800B093F900D801549672
:102A20008D919C915597A0E0B0E0DC019927882713
:102A3000F801228D338D40E050E0822B932BA42BA4
:102A4000B52B80932B0390932C03A0932D03B0936D
:102A50002E03848D958DA68DB78D80930201909362
:102A60000301A0930401B0930501FFC08DE00E9413
:102A7000F91C8AE00E94F91C81EA91E00E94FD1C89
:102A80008DE00E94F91C8AE00E94F91C8DE00E94F2
:102A9000F91C8AE00E94F91CD80154968D919C91F2
:102AA0005597A0E0B0E05C0199248824F801828D5C
:102AB000938DA0E0B0E0882A992AAA2ABB2A85EE45
:102AC000808369817A818B819C810E94DD1BD80182
:102AD0005C964D915D916D917C915F9780E00E9435
:102AE0006E1182E060E020E030E040E050E00E94C3
:102AF000E71086169706A806B90630F482E061E072
:102B0000A50194010E94E710C501B40140E000E076
:102B100010E020E030E00E94E513F62EE72ED82EDC
:102B2000C92EC501B40141E000E010E020E030E032
:102B30000E94E5138F2D9E2DAD2DBC2D4C015D0106
:102B4000B7EF8B16BFEF9B06BFEFAB06BFE0BB0630
:102B5000D8F283E991E085C08DE00E94F91C8AE0FB
:102B60000E94F91C1A8619860BC0E985E73019F412
:102B700080E20E94F91C89859A8501969A87898747
:102B8000E985FA85E00FF11F80810E94F91CA98573
:102B9000BA851A9751F78FE891E00E94FD1C8701D2
:102BA000025E1E4F05511040F80180810B5E1F4FE1
:102BB0008031B9F0883019F48DE791E014C08AE8CB
:102BC00091E00E94FD1C86E891E00E94FD1CF80146
:102BD0003497408151816281738180E00E946E0F41
:102BE00004C082E891E00E94FD1C80E290E0E80EC3
:102BF000F91EA701405250408091060190910701B3
:102C00004817590708F4B7CE0894611C711C811C41
:102C1000911C80911E0390911F03A0E0B0E0681604
:102C200079068A069B0608F494CEC601B50140E0F9
:102C300000E010E020E030E00E94E5135B016C0151
:102C400097EFA9169FEFB9069FEFC9069FE0D90637
:102C500050F4A114B104C104D10409F05ACE84E6A1
:102C600091E00E94FD1C00E010E0C8012A960FB61A
:102C7000F894DEBF0FBECDBFCF91DF911F910F91B2
:102C8000FF90EF90DF90CF90BF90AF909F908F908C
:102C90007F906F905F904F903F902F900895CF93CB
:102CA000DF93EC010E94D50F882321F482E0BE015E
:102CB0000E946214DF91CF9108952F923F924F921C
:102CC0005F926F927F928F929F92AF92BF92CF92BC
:102CD000DF92EF92FF920F931F93DF93CF9300D079
:102CE00000D0CDB7DEB7182F81E00E9462149C019E
:102CF000009709F489C0113011F481E086C0DC012D
:102D000054968D919C915597A0E0B0E06C01BB2446
:102D1000AA24F901828D938DA0E0B0E0A82AB92AF7
:102D2000CA2ADB2AD9015C968D919D910D90BC91A8
:102D3000A02D89839A83AB83BC8322243324210171
:102D400020911E0330911F03E090FE00F090FF00E1
:102D50000091000110910101C601B501625070405F
:102D60008040904040E050E00E94661D3B014C01D5
:102D70006E0C7F1C801E911E10E028C0C401B301A0
:102D8000610F711D811D911D0E942B1C20E030E000
:102D9000F901E25EFE4F80818BBB87E791E00197EE
:102DA000F1F789819A81AB81BC81281639064A06E0
:102DB0005B0650F50894211C311C411C511C2F5FEF
:102DC0003F4F92E02030390719F71F5F20911E0313
:102DD00030911F03812F90E08217930778F2C6018C
:102DE000B50140E000E010E020E030E00E94E51393
:102DF0005B016C01611571058105910509F0A0CF9A
:102E00008BE491E00E94FD1C80E00F900F900F90EA
:102E10000F90CF91DF911F910F91FF90EF90DF9076
:102E2000CF90BF90AF909F908F907F906F905F906A
:102E30004F903F902F9008952F923F924F925F9224
:102E40006F927F928F929F92AF92BF92CF92DF92BA
:102E5000EF92FF920F931F93DF93CF93CDB7DEB71F
:102E600027970FB6F894DEBF0FBECDBF9F838E832A
:102E700081E06E817F810E945D16813009F057C02C
:102E80008EE091E00E94FD1C60902B0370902C035B
:102E900080902D0390902E03AA24BB246501C401C9
:102EA000B30140E000E010E020E030E00E94E513D4
:102EB0006F3F2FEF72072FEF82072FEF920741F03E
:102EC0000894A11CB11CC11CD11C3B014C01E7CFD3
:102ED00020911E0330911F0360910601709107013C
:102EE000E0900601F090070180E090E040E050E0C3
:102EF0000E94661DA60195010E94661D9B01AC0102
:102F0000609102017091030180910401909105018B
:102F1000621B730B840B950B00E010E0A801970176
:102F20000E94851DB22E21E0AA24A39458C08230AD
:102F300009F423C38DE00E94F91C8AE00E94F91C69
:102F40008DEF90E00E94FD1C82E060E020E030E028
:102F500040E050E00E94E7109B01AC018091080125
:102F600090910901A0910A01B0910B01821793077A
:102F7000A407B50740F420910C0130910D01409158
:102F80000E0150910F01CA01B9010E945D103B0171
:102F90004C01611571058105910549F48DE00E9490
:102FA000F91C8AE00E94F91C8BEE90E0E4C241E03B
:102FB0000FEF1FEF2FEF3FEF0E94E513C401AA2789
:102FC000BB279C838B837A826982109202011092C4
:102FD0000301109204011092050120E0AA241D8231
:102FE0002B2C332444245524C401B3016250704077
:102FF000804090402223E9F120911E0330911F036D
:10300000E090FE00F090FF0000910001109101019E
:10301000E20CF31C041D151D40E050E00E94661DEB
:10302000E60EF71E081F191FE0921401F092150119
:10303000009316011093170160911401709115010E
:1030400080911601909117010E942B1C209106017E
:103050003091070140E050E060910201709103015E
:1030600080910401909105010E94851D8B01EB2C3C
:103070001FC020911E0330911F03E090FE00F090CE
:10308000FF00009100011091010140E050E00E941A
:10309000661DE60EF71E081F191FE0921401F0923C
:1030A00015010093160110931701EE2400E010E0C3
:1030B0008DE00E94F91C8AE00E94F91C81ED90E0ED
:1030C0000E94FD1C8D818130E9F48AE00E94F91C88
:1030D000F801E25EFE4F8AE080830F5F1F4F809110
:1030E000020190910301A0910401B09105010196A4
:1030F000A11DB11D8093020190930301A0930401CF
:10310000B09305010E94F41CF82E98E08917D1F4C1
:1031100001151105B9F388E00E94F91C80E20E94B4
:10312000F91C88E00E94F91C0150104080910201B6
:1031300090910301A0910401B09105010197A109AB
:10314000B109D8CF0E94F91CF801E25EFE4FF0826F
:103150000F5F1F4F8091020190910301A091040124
:10316000B09105010196A11DB11D809302019093BC
:103170000301A0930401B0930501ADE0FA1621F517
:10318000B2E000301B0719F4E1E0ED8324C08AE0CF
:103190000E94F91CF801E25EFE4F8AE080830F5F17
:1031A0001F4F8091020190910301A0910401B09101
:1031B00005010196A11DB11D8093020190930301A9
:1031C000A0930401B0930501F2E000301F0710F452
:1031D0001D822AC01D826091140170911501809199
:1031E0001601909117010E94DD1BE39420911E03AC
:1031F00030911F038E2D90E082179307D1F08091BC
:10320000140190911501A0911601B091170101963A
:10321000A11DB11D8093140190931501A093160177
:10322000B093170100E010E02EE7F21609F04ACF44
:1032300005C08EE7F816B9F500E010E080910201B4
:1032400090910301A0910401B09105010197A1099A
:10325000B1098093020190930301A0930401B093FC
:103260000501B8016150704006C0FB01E25EFE4FEF
:1032700010826F5F7F4F92E060307907B0F360910A
:1032800014017091150180911601909117010E940F
:10329000DD1B82E061E0A40193010E94E710AA20F7
:1032A00009F46FC028C0C401B3010E945D106B0116
:1032B0007C01611571058105910549F48DE00E943D
:1032C000F91C8AE00E94F91C8FEB90E054C1C40104
:1032D000B30141E0970186010E94E513C701B601E1
:1032E00041E00FEF1FEF2FEF3FEF0E94E51320E0CB
:1032F0003601470179CE60913E0370913F03809182
:103300004003909141030E942B1CE091F600F09144
:10331000F700E25EFE4F20910201309103014091DF
:10332000040150910501848D958DA68DB78D79018D
:103330008A01E81AF90A0A0B1B0B248F358F468F76
:10334000578F60913E0370913F03809140039091AD
:1033500041030E94DD1B81E0B801A7010E946E11AC
:103360008DE00E94F91C8AE00E94F91C8FEA90E02F
:103370000E94FD1C8DE00E94F91C8AE00E94F91C4D
:10338000FCC080900C0190900D01A0900E01B090B7
:103390000F01222420911E0330911F03E090FE00B4
:1033A000F090FF000091000110910101C501B401EE
:1033B000625070408040904040E050E00E94661DA6
:1033C0002B013C014E0C5F1C601E711E33248AC011
:1033D00073016201C30CD11CE11CF11CC701B601D1
:1033E0000E942B1C00E210E072C0AF01425E5E4FF3
:1033F000222019F0DA011C92C0C0F801E250FF4F00
:10340000E081EE2319F0E53E09F05FC020E030E0F6
:10341000BA01620F731FAE81BF81A20FB31F8C91DF
:10342000FB0180832F5F3F4F2B30310589F7F80177
:10343000E25EFE4F759720E221931192119284E88B
:1034400096E981939193A7E3BAE3A193B193B183F2
:10345000A083349681939193B183A08334978B8119
:103460009C81918380833696A981BA81A193B1937F
:103470008091020190910301A0910401B091050196
:1034800080839183A283B383C701B6010E94DD1BB1
:103490008DE00E94F91C8AE00E94F91C8DE00E94D8
:1034A000F91C8AE00E94F91C80EA90E00E94FD1C51
:1034B0004091020150910301609104017091050156
:1034C00081E00E946E1122242394005E1F4F8091A0
:1034D000060190910701F801B097E817F90708F481
:1034E00084CF339420911E0330911F03832D90E0ED
:1034F0008217930708F46CCFC501B40140E000E0E7
:1035000010E020E030E00E94E5136B017C01673F92
:10351000BFEF7B07BFEF8B07BFE09B0710F16F3F4B
:10352000EFEF7E07EFEF8E07EFEF9E07B9F4C501CF
:10353000B4010E945D106B017C01C501B40141E042
:10354000970186010E94E513C701B60141E00FEF24
:103550001FEF2FEF3FEF0E94E51303C08BE890E0D1
:103560000AC046015701C114D104E104F10409F075
:1035700011CF82E790E00E94FD1C27960FB6F894C9
:10358000DEBF0FBECDBFCF91DF911F910F91FF9096
:10359000EF90DF90CF90BF90AF909F908F907F90F3
:1035A0006F905F904F903F902F900895A89882BBA6
:1035B000A99A00000000A99888EB9BE00197F1F719
:1035C0000895A89A82BBA99A00000000A99888EBE8
:1035D0009BE00197F1F70895813019F0823051F4A2
:1035E00005C0862F81580E94D61A0895862F8154CF
:1035F0000E94D61A0895CF93DF93EA010E94EC1A35
:1036000003C021960E94E11A88818823D1F7DF91B7
:10361000CF91089540E050E00CC020E030E0000081
:1036200000002F5F3F4F66E02E303607C1F74F5F37
:103630005F4F481759078CF3089584E690E00E9485
:103640000A1B88E30E94D61A86E00E94D61A8FE0F1
:103650000E94D61A81E00E94D61A8AE090E00E9469
:103660000A1B089580E281BB81E88FBD89E08EBD91
:103670001BBC1ABC08959BBD8ABD0895DF92EF92D2
:10368000FF920F931F93D82E7A018B018091240310
:103690008823B9F48D2D8151823060F088E1D816ED
:1036A00049F089E1D81631F080E2D81619F081E2AC
:1036B000D81639F439E0EE0CFF1C001F111F3A95A3
:1036C000D1F7C1988D2D80640E94DA1C812F992733
:1036D000AA27BB270E94DA1CC801AA27BB270E9481
:1036E000DA1CBB27A12F902F8F2D0E94DA1C8E2D64
:1036F0000E94DA1C88E0D81611F487E801C085E939
:103700000E94DA1C10E002C01150D1F00E94DF1CB0
:10371000082F8F3FC9F3882399F48AE3D81681F4E0
:103720000E94DF1C86FF04C081E08093240302C056
:10373000109224030E94DF1C0E94DF1C0E94DF1CE9
:103740000E94DF1CC19A802F1F910F91FF90EF9074
:10375000DF900895AF92BF92CF92DF92EF92FF92E7
:103760000F931F937B018C0159016A0180E2B8011C
:10377000A7010E943E1B8823B9F40894E108F108D0
:1037800001091109EA0CFB1C0C1D1D1D81E2B80189
:10379000A7010E943E1B882339F486E240E050E0F6
:1037A00060E070E00E943E1B1F910F91FF90EF9030
:1037B000DF90CF90BF90AF900895CF93DF93AB0190
:1037C000BC0188E10E943E1B882311F0982F3FC066
:1037D000C1988EEF0E94DA1CC0E0D0E0FE01E25EEC
:1037E000FE4F80810E94DA1C219682E0C030D8070B
:1037F000A9F78FEF0E94DA1C8FEF0E94DA1C0E945B
:10380000DF1C982F8F71853041F0C19A20C08FEF57
:10381000CF3FD80791F0219602C0C0E0D0E00E94CF
:10382000DF1C8823A1F3C19A8FEF0E94DA1CC19894
:1038300008C08FEFCF3FD80719F4C19A91E007C0B5
:1038400021960E94DF1C8823A1F3C19A90E0892F62
:10385000DF91CF9108951F93CF93DF93AB01BC010C
:1038600081E10E943E1B182F882309F5C198C0E012
:10387000D0E005C0219719F4C19A11E018C00E9448
:10388000DF1C8E3FB9F7C0E0D0E00E94DF1CFE01D4
:10389000E25EFE4F8083219682E0C030D807A9F710
:1038A0000E94DF1C0E94DF1C0E94DF1CC19A812F36
:1038B000DF91CF911F9108951F93CF93DF9310E075
:1038C0008FEF0E94DA1C1F5F1A30D1F7C198C0E059
:1038D000D0E080E040E050E060E070E00E943E1BFD
:1038E0002196C132D10511F481E05CC0813089F7A5
:1038F000C19A8FEF0E94DA1C8FEF0E94DA1CC0E0A1
:10390000D0E088E04AEA51E060E070E00E943E1BAF
:103910002196CF3FD10529F481E080932F0311E058
:1039200003C0813071F712E0C0E0D0E087E340E0EF
:1039300050E060E070E00E943E1B89E240E050E011
:1039400060E070E40E943E1B2196CF3FD10511F448
:1039500082E028C0882351F710922403123011F519
:10396000C0E0D0E08AE340E050E060E070E00E9418
:103970003E1B2196CF3FD10549F48DE00E94F91CF2
:103980008AE00E94F91C10922F0302C0882351F78D
:1039900080912403813011F482E001C083E08093A0
:1039A0002F0380E0DF91CF911F91089582E58DB9BB
:1039B0001EB808958FB9779BFECF8FB108958FEF12
:1039C0008FB9779BFECF8FB108955D9BFECF8CB9E9
:1039D00080E090E008955F9BFECF8CB15D9BFECFB1
:1039E0008CB98CB190E008955F9BFECF8BB18CB108
:1039F00008955D9BFECF8CB90895FC0104C05D9BCA
:103A0000FECF31968CB984918823C9F70895FC01C3
:103A100004C05D9BFECF31968CB980818823C9F7A5
:103A20000895DF93CF93CDB7DEB72B970FB6F894F9
:103A3000DEBF0FBECDBF813011F494E005C08230EF
:103A400011F498E001C092E0DE011196E0EEF0E0A2
:103A50008BE001900D928150E1F79E012E5F3F4F68
:103A6000842F8F70E92FF0E08A3020F4E20FF31FEB
:103A7000805D03C0E20FF31F895C8083915041F0A9
:103A800084E076956795579547958A95D1F7E8CF65
:103A9000CE0101960E94071D2B960FB6F894DEBF4B
:103AA0000FBECDBFCF91DF91089510BC8DE489B9D1
:103AB00088E18AB98EE880BD85EE9CE16BEE7CE101
:103AC0000E94A71D8FB780688FBF0895629FD001A5
:103AD000739FF001829FE00DF11D649FE00DF11DC9
:103AE000929FF00D839FF00D749FF00D659FF00D78
:103AF0009927729FB00DE11DF91F639FB00DE11D65
:103B0000F91FBD01CF0111240895A1E21A2EAA1BAD
:103B1000BB1BFD010DC0AA1FBB1FEE1FFF1FA2177D
:103B2000B307E407F50720F0A21BB30BE40BF50B7A
:103B3000661F771F881F991F1A9469F76095709503
:103B4000809590959B01AC01BD01CF0108950F9325
:103B50001F93CF93DF938C01EB01009731F4611534
:103B6000710519F420E030E038C081E090E06EE0AB
:103B700070E00E94F31DFC019C01009771F180E848
:103B80008383209771F0D387C28781E883838091F4
:103B90004D0390914E03892B21F4F0934E03E09353
:103BA0004D0301151105C9F01187008783818260DB
:103BB000838380914F0390915003892B71F4F0938C
:103BC0005003E0934F038091510390915203892B4E
:103BD00021F4F0935203E0935103C901DF91CF9197
:103BE0001F910F9108950F931F93CF93DF93689FB9
:103BF0008001699F100D789F100D1124C8010E944B
:103C00000F1EEC01009729F060E070E0A8010E940F
:103C1000141FCE01DF91CF911F910F910895CF9383
:103C2000DF93BC018230910510F462E070E0A09156
:103C30005503B0915603ED01E0E0F0E040E050E0C4
:103C400021C0888199818617970769F48A819B81B1
:103C5000309719F09383828304C090935603809326
:103C60005503FE0134C06817790738F44115510532
:103C700019F08417950708F4AC01FE018A819B8135
:103C80009C01E9012097E9F641155105A9F1CA0106
:103C9000861B970B049708F4BA01E0E0F0E02AC015
:103CA0008D919C91119784179507F9F46417750706
:103CB00081F412968D919C911397309719F093830C
:103CC000828304C09093560380935503FD0132967E
:103CD0004FC0CA01861B970BFD01E80FF91F6193C6
:103CE000719302978D939C9343C0FD0182819381D0
:103CF0009C01D9011097A1F6809153039091540330
:103D0000892B41F48091ED009091EE009093540343
:103D1000809353034091EF005091F00041155105FD
:103D200041F44DB75EB78091EB009091EC00481BD9
:103D3000590B209153033091540324173507B0F4E5
:103D4000CA01821B930B8617970780F0AB014E5F69
:103D50005F4F8417950750F0420F531F5093540341
:103D600040935303F9016193719302C0E0E0F0E0E6
:103D7000CF01DF91CF910895CF93DF93009709F49E
:103D800050C0EC0122971B821A82A0915503B0917A
:103D90005603109709F140E050E0AC17BD0708F159
:103DA000BB83AA83FE0121913191E20FF31FAE176D
:103DB000BF0779F48D919C911197280F391F2E5FC1
:103DC0003F4F3983288312968D919C9113979B8343
:103DD0008A834115510571F4D0935603C09355035E
:103DE00020C012968D919C911397AD01009711F010
:103DF000DC01D3CFFA01D383C28321913191E20F49
:103E0000F31FCE17DF0769F488819981280F391FC6
:103E10002E5F3F4FFA01318320838A819B819383F8
:103E20008283DF91CF910895DC0101C06D934150F1
:0A3E30005040E0F70895F894FFCF2A
:103E3A00415544494F20504C415900202A2A2A2AE8
:103E4A002A2A2A2A2A2A2A200020534463617264D1
:103E5A00204E4420002D2D2D2D2D2D2D2D2D2D2D97
:103E6A002D2D2D2D2D00506C6179696E672E2E2E09
:103E7A0020202020202000436C7573746572204531
:103E8A0052524F522020200020203F3F3F3F3F3FC9
:103E9A003F3F3F3F3F20200020202020202020209D
:103EAA00202020202020427974657300901A000097
:103EBA0030782020202020202020002000570300D6
:023ECA000000F6
:00000001FF
