:100000000C94B40F0C94D10F0C94D10F0C94D10F0D
:100010000C94D10F0C94D10F0C94D10F0C94D10FE0
:100020000C94D10F0C94D10F0C94D10F0C94D10FD0
:100030000C94D10F0C94D10F0C94D10F0C94D10FC0
:100040000C94D10F0C94D10F0C94D10F0C94D10FB0
:100050000C94D10F7461901A0000808080808080A1
:100060008080808080808080808080808080808090
:100070008080808080808080808080808080808080
:100080008080808080808080808080808080808070
:100090008080808080808080808080808080808060
:1002B0008080808080808080808080807F80807F40
:1002C000807F7F807F7F807F80807F807F7F7F7F38
:1002D0007F7F7F7F7F7F7F7F7F807F7F807F807F2B
:1002E0007F807F80808080808082818084817F8504
:1002F0007F80837F8083817F8482808481828389E1
:100300008A828C878089827E827C7D7E797C7A77E6
:10031000797875767976787B7E83868D90929594C0
:1003200094928E8B88837F7B7366594A3E385E60D9
:1003300054959289B7AC99A6917B7F6C656C6B7371
:100340007987969AA7ADA6A99E8E877B74707378DD
:100350007B878E9096948D887D71685C575250593A
:100360005E68787E8A9A9F9DA1A0918F8B81808202
:1003700080858D8C9397948E897354563221424593
:10038000446A8E8AABBFB1B5AD968C8774707773B3
:1003900076858D93A1A8A6A4A39889857B706E6AA3
:1003A0005C565C4A43525D6B6F89978E9FA097970E
:1003B0008F88887F7E837F868B8D989DA3A8A5A13B
:1003C000988C7B6B5549442A28394A5D6E939FA6C9
:1003D000B6B4ABA4968682747076767D87929FAA17
:1003E000B2B5B1AA9B8976634E443E2B252D3D5B69
:1003F0006B81A2A7ADBAB0A69E8D8378707072791A
:10040000838C9CA9B2BCB8B4AA9685715B4B453865
:1004100028272D3E5E6C7FA4A5ABBBAEA79D8C8428
:10042000766F73737C8892A2B1BABEBCB4A6917D7C
:100430006851483D2822212A495A6B8F9CA5B6B69F
:10044000B2AA9C9284777573777E8695A2AEB7B96F
:10045000B8AFA1907B67544A3E2C2529364D587180
:10046000938D9FB5A9ADABA099888383797D848551
:100470008F98A3A8A6ABA5958B7D6C5D5A574C4968
:100480004A525A5B66727579858C909598999490CA
:10049000908E8C8B8E908F9293908D8C87827F7DA7
:1004A0007B78797B79767473737270706F6E6F700E
:1004B0007275787C8082858788898B8D8F908F8FED
:1004C0008E8C8B8A88878685848483838281807FD3
:1004D0007E7D7B7A78757372706F6F7072737578CA
:1004E0007A7C7E81838587888A8B8B8B8B8A8A89AD
:1004F00088878685848483828180807F7F7E7D7DDE
:100500007C7B7B7A7A7A7A7A7A7A7B7C7C7D7E7F36
:1005100080808182828283838383838282828281BC
:1005200081818181808080808080808080808080C7
:1005300080808080808080808080808080808080BB
:1005400080808080818181818181818180808080A3
:100550008080808080808080807F7F7F7F7F7F7FA2
:100560007F7F7F7F8080808080808080808080808F
:100570008080808181818181818180808080808074
:10058000808080808080808080808080808080806B
:10059000808080808080808080808080808080805B
:1005A000808080808080808080808080808080804B
:1005B000808080808080808080808080808080803B
:1005C000808080808080808080808080808080802B
:1005D000808080808080808080808080808080801B
:1005E000808080808080808080808080808080800B
:1005F00080808080808080808080808080808080FB
:1006000080808080808080808080808080808080EA
:1006100080808080808080808080808080808080DA
:1006200080808080808080808080808081807F81C9
:1006300082807F80807F7F80807F808080808080BC
:100640008080808080807F80808080807F808080AC
:10065000808080808080808080808080808080809A
:10066000808080807F80808080808080808080818A
:1006700080808080808081817F80807F808080807A
:100680008080808080808080807F8080808080816A
:10069000807F80807F8180818180807F817F807F5B
:1006A0007F808081808180808080807F808080804A
:1006B000808280817F80807F7F80817F8180818038
:1006C0007F80807E82817F7F8080807E818180802C
:1006D0008181807F8081807E8080817F8280817D1A
:1006E000817F7F817E837D8380827E827E7F808109
:1006F00081817E80827D817F817E807C81818283F9
:100700007D7E80817E827F82817E827F7D7D8280F0
:100710007F817F837D7F8180807F807F827E7E7DE1
:100720007F81818280827E8280838280807D817EC3
:10073000827F82827F8080827F827E82827D8080B3
:100740008281807D7F827D817F8184807F7E827EA9
:1007500080817F827F807F807E7F837E817E7C839D
:10076000807F80817F827F7B857F81847F81808085
:100770007C817E7F837B818382828081818179807D
:10078000827E827E7F84827D81827D817B7C84806B
:100790007D81818083817C81817F827F8084817D56
:1007A00080827F7E80817F7E7F80817E7F8282814A
:1007B0007E81827F807F8081808082827F80808036
:1007C000817F7E80827F808181817F80807F7F7F2B
:1007D0008180818181807E807F7E81818081818016
:1007E00080807F807F80807F7F808180807F80810C
:1007F00080807F7F808180808080818080808181F7
:100800008080807F7F80808081807F808180807FEA
:100810007F8181807F7F80818180808181808081D4
:100820007F808080808080808080807F7F7F8080CC
:100830007F8080807F7E80808180808081808181B8
:1008400080818180808081818080808180807F80A4
:100850008081807F7F7F7F80808080807F8080809C
:1008600080807F7F80818080808080808180808088
:100870008080808080808080808080808080808078
:1008800080808080808080807F7F8080808080806A
:100890008081808080808180808080808080818055
:1008A000808080807F7F7F80808080807F7F80814C
:1008B0008180808080818181808081818181808030
:1008C000808080808080807F80807F7F7F7F7F7F2F
:1008D0007F80808080808080808080808081818116
:1008E00081818181818181818080808181808080FE
:1008F0007F7F80807F7F7F7F7F7F7F7F7F7F7F7F06
:100900007F808080818181818180818181828180DD
:100910008081818181818080808080807F7F7F7FD6
:100920007F7F7F7F7F7F7F7E7E7F7F7F7F808080D6
:10093000808182828282828282828282828181819D
:10094000818181807F7D7D7D7D7C7C7C7C7D7D7DCA
:100950007D7D7E7F8081818282838484848484857E
:1009600085858584838383838281807E7C7C7C7B78
:100970007A797776777979797A7C7E8184858686AB
:100980008787898A8B8B8A898A8B8B8B89858281E1
:10099000807F7B756F6B6865625D595C697B8A914E
:1009A000928F8C8D92969289817D7F88939A9B9865
:1009B000959391908D857B736E6B69665F544B4BFD
:1009C000586F84929998918C8E908D88837B7579DD
:1009D000858F979B9A94909091908B8378706F738A
:1009E00077777163554C48536D87949895918F94A0
:1009F0009893877B73737E8D9696939191959A9930
:100A00008E817873757A7C7870685E585450556919
:100A100081909798959191928C817773757F8C9442
:100A200094919193959692887D78797B7D7E7B7663
:100A3000726E675E544A516C8A999A959292979A0F
:100A40008F7C6F6F798793958E8A90999C988D7F14
:100A500076777E817C7775777A796F5E52484B62C4
:100A60008293908B8E979C9C8F7A6B6E7D888C8BFB
:100A70008A8B949FA09487807E8082807A767B8305
:100A80008580766B615B524D5A778E9392939899DD
:100A900098907E6F6D788287888A8D949B9C9287D0
:100AA000818181807C78767C84868179726B645ABE
:100AB0004C49618496938D919A9E9889756A71804C
:100AC0008886858B949C9F978A82838681797576A8
:100AD0007C8488857D78767266594B4354789695E8
:100AE000898A9BA49C89746A6D7C8583808998A17E
:100AF0009E958D87868782787379838786848483A1
:100B0000827C706257534D526A8B98928F99A29A49
:100B100089786E6D747F838389969F9D958E898574
:100B2000807D797679808686858586827B736A6208
:100B30005B554D506A8E9E958C94A19D89756C6E07
:100B4000778286858A99A4A091888888827B787923
:100B50007E858988848486847B716A66635E564E4E
:100B60005676989F8E8692A0967D6C6B737C83865A
:100B700088909CA2998A8487878078787E858989E5
:100B8000888688888379706E6D6A635D57576B8B32
:100B90009E948589999C856F6C767D7E82888F96E0
:100BA0009B988C8384878379767E868885858888E0
:100BB00085807A7470706D6964615C5A6D8C9F93E6
:100BC00084889A9C85706F7A8182838890979A94A2
:100BD0008983868882797A83898683848887827CE0
:100BE0007875726F6A68656259586F929F8D7F8BB6
:100BF0009F9B7E6C717F837F808A93999891888672
:100C00008A8980777C868B8684878B89817B7876BE
:100C100074706B6664625B5A71929C8A7F8D9F9739
:100C20007B6C7480807D7F889297958D85868B877D
:100C30007D788088888282888A86807C7976726EC8
:100C40006A67645F575E7B9797858397A2907771F9
:100C50007C837F7C818B9496928B898D8C837B7D2A
:100C60008485818085898884817D7975706B6764CE
:100C70006057546888978A818FA39C82757B838094
:100C8000797A838E95938C8B92938A7E7E848681EB
:100C90007E81868987837E7D7B766D6867645B5302
:100CA0005D7A908B80899DA08D7D7C83827B767A16
:100CB000868F8F8A8A92958E83818585807D7E83BB
:100CC0008685827F7F7F7B736D6C6962595A6D83E5
:100CD000867F82939E9587838788827A7880898AA7
:100CE00086868E939089868786837F7D7E818381A9
:100CF0007E7F817E787473716C676367737D7D7BA3
:100D0000828E928C88898C89827E7F828483818482
:100D1000898B898687878682807F7F80807E7E7FA1
:100D2000807E7C7C7C7B7978787878797A7C7D7E13
:100D30007E808181818182828181818181818181A5
:100D40008282828282828282828282828181808089
:100D5000807F7F7F7F7F7F7F7F7F7F7F7F8080809F
:100D60008080808081818181818181818181818177
:100D7000818181818181808080808080807F7F7F70
:100D80007F7F7F7F7F7F7F7F7F7F7F7F7F80808070
:100D90008080808080808080808080808080808053
:100DA0008080808080808080808080808080808043
:100DB0008080808080808080808080808080808033
:100DC0008080808080808080808080808080808023
:100DD0008080808080808080808080808080808013
:100DE0008080808080808080808080808080808003
:100DF00080808080808080808080808080808080F3
:100E000080808080808080808080808080808080E2
:100E100080808080808080808080808080808080D2
:100E200080808080808080808080808080808080C2
:100E300080808080808080808080808080808080B2
:100E400080808080808080808080808080808080A2
:100E50008080808080808080808080808080808092
:100E60008080808080808080808080808080808082
:100E70008080808080808080808080808080808072
:100E80008080808080808080808080808080808062
:100E90008080808080808080808080808080808052
:100EA00080808384817E7E7F7F7F7F7F8080818141
:100EB00081808181818C7C7285837780857C7B7F3A
:100EC0008F82758F85748486767C837F827F7D8216
:100ED000837E80837D7E827E7D81807D81807E8019
:100EE000807F7F8181817F7F8082847F7F817E7F01
:100EF000827F7E81807F81817F81808387808082E5
:100F00007F7E7F7E7D7F7F7F80808081817F8080EC
:100F10007F7F7E7F7F7F807F8080818181818181D3
:100F200081828182828181818181818181808080B1
:100F30007F7F7F7E7E7E7D7E7D7C7D7B7B7D7B7CDF
:100F40007E7C7F8080828283858485868586868577
:100F50008686858685858583838380817F7D7D7A6E
:100F600079787575737071706F72717479797F8427
:100F7000868C8E8F93929292908F8E8B8C8B8A8B95
:100F80008B8A8B888785817D78726C665F5B555410
:100F900057586269707F858E99989D9D9797908B21
:100FA00089848385868B9193989A9999948F8A8363
:100FB0007D77736F6C6C6A6867615E5D5D5E6369A7
:100FC0006D787F8793969A9E9998958D8B8681836D
:100FD00083848A8C90949494948F8B89817F7C777E
:100FE00077747273716F6C66615E5C5B60656C7662
:100FF0007E8892969C9C9A98928D88838180828527
:10100000898E9295989696928D8A837F7C76767358
:101010007173716F6D67625F5B5B5E616A717B8527
:101020008D95999B9B97958F8B88848485878C8FD2
:101030009396979795928D88837E7A767371706F69
:101040006E6D6A66605D5B5B60646B757C878F95B7
:101050009A9B9997938F8B878686878A8D90949693
:101060009696938F8C86817F7A78777374736F717D
:101070006D68665F5D5D5D63697079818A8F949745
:101080009596928D8D878687858A8C8E939494957C
:1010900093918E8A85827F7B7B7977787473746D68
:1010A0006B685E5F5B5A62646E777D888D91969403
:1010B00093928D8B88868786898D8F93959697944A
:1010C000928F8A87837F7E7B7A7A79787674726E44
:1010D0006A65605E5B5E626670777F888C909392D3
:1010E00092908C8B888788888A8D8F93959696941A
:1010F000928F8A87837F7E7C7B7B79797875736F0B
:101100006B66615E5B5B5F656B757C838B8E9193B9
:1011100090908E8A8A8787898A8D919295979696E4
:10112000938F8C8884817E7D7B7A7B7979797673C5
:10113000706A65615C5C5C60686D777F848D8F919F
:10114000938F8E8C88888786898A8D9193969796BF
:1011500095928F8C8784817E7D7C7B7C7B7A79786D
:1011600074716C66645F5E5F60676C737B80878B95
:101170008D908E8E8C8A89878889898D8E919494A2
:10118000959491908C898782817F7D7F7D7C7C7A0C
:10119000797874726E696763626263676C71787E76
:1011A00082888A8B8D8B8B8A878888878B8B8D91A1
:1011B0009194949393908E8C88868381807F7E7D9A
:1011C0007C7B7A797775726E6A6663626264686C3A
:1011D00072787D8286898B8C8B8B8A898988898AB3
:1011E0008C8E909293939392908E8B88858381803E
:1011F0007F7F7E7D7C7B7A7876736F6C69656464B3
:1012000064686B70767A808486898A8A8B898989FA
:1012100088898A8B8E8F9092929392908F8C8987F7
:10122000848281807F7E7E7D7B7A797775726E6B1A
:1012300068666464666A6D72777B80838689898A52
:1012400089898988898A8A8D8D8F919192919090D0
:101250008D8B89878583828180807F7D7C7B797877
:101260007573706C6A67666667696C7074787D8088
:10127000848688898A8A8A8A8A8B8B8C8D8E8F90C5
:101280009090908F8E8C8A888684838281807F7EE6
:101290007D7B7A787674726F6C69686767686B6E4D
:1012A00072767A7E828587898A8A8A8A8A8B8B8CF3
:1012B0008C8D8F8F9090908F8E8D8B898785838278
:1012C0008180807F7E7C7B7A787673706D6B6867B7
:1012D00066676A6D7074797D818486888989898959
:1012E000898A8A8B8C8D8E8F8F90908F8E8D8B8933
:1012F00087868482818180807F7E7D7B7A7775730B
:101300006F6D6B686767686B6E72767A7E828486B3
:10131000888889898989898A8B8C8D8E8F8F909016
:101320008F8E8C8A8987858382818180807F7E7D74
:101330007B79777572706D6B6A6A696A6C707376A7
:101340007A7D808385868788888989898A8B8C8C39
:101350008D8E8E8F8E8E8D8B8A88878584838281F9
:1013600080807F7E7D7B7A78767472706E6C6B6A1B
:101370006B6C6E7175787C80838586878889898996
:1013800089898A8B8B8C8D8E8E8E8E8D8C8A8987A7
:1013900086848382818180807F7E7C7B797875736F
:1013A000716F6D6C6B6B6C6E7073777A7D808385FB
:1013B00086878888888989898A8B8C8D8E8E8E8E87
:1013C0008D8D8B8A88878584828181807F7E7D7CDC
:1013D0007B79777573716F6D6C6C6C6D6E717477F2
:1013E0007B7E81838586878888888889898A8B8C9B
:1013F0008D8E8E8E8E8D8C8B898886848381808065
:101400007F7E7D7C7B7A79777572716F6E6D6D6D85
:101410006E6F7276797C7F828486878788898989D6
:10142000898A8A8B8C8D8E8E8E8D8C8B8988868412
:101430008381807F7F7E7D7C7B7A797876747371FF
:1014400070706F6F70717274777A7D808284868716
:1014500088898A8A8A8B8B8C8C8D8D8D8D8C8C8BD8
:101460008988868482817F7E7D7C7B7A7978777695
:101470007473727171707171727476787B7D808211
:1014800084868788898A8A8B8B8B8B8C8C8C8C8CBE
:101490008B8B898887858381807F7E7D7C7B7B7B2E
:1014A0007A79777675747272727272737475787AEB
:1014B0007C7E80828485878788898A8A8B8B8C8CC6
:1014C0008C8C8C8C8B8A8987858482817F7E7D7CC5
:1014D0007B7A7978787776757474737373737475AF
:1014E00077797B7E808284858687888889898989C7
:1014F000898A8A8A8A8A8A89888786848381807F82
:101500007E7D7C7C7B7B7A79797877777676767648
:10151000767777787A7B7D7E8081828384858686E4
:101520008787888888898989898888888786858443
:10153000838281807F7E7D7C7B7B7B7A79797878E2
:1015400077777777787878787A7B7C7E7F818283EB
:101550008484858686868787878888888888878721
:10156000868585838281807F7F7E7D7D7D7C7C7C7E
:101570007C7C7C7B7A7A79797979797A7A7B7D7EC1
:101580007F8081828282838383838484848585852E
:1015900085868585858483838282818080807F7F24
:1015A0007F7F7E7E7E7E7E7D7D7C7C7B7B7B7B7B6E
:1015B0007B7C7C7D7E7F8080808081818181828236
:1015C00082838384848585858584848382828181E6
:1015D0008080808080808080807F7F7E7E7D7D7D1A
:1015E0007D7D7D7D7D7D7E7E7F7F80808080808013
:1015F00080808080808181818181828282828282DA
:1016000081818181808081818181818181808080CF
:101610008080807F7F7E7E7E7E7E7F7F7F7F7F7FDC
:101620007F7F7F80808080808080808181818181B8
:1016300081818181808080808080808080818181A3
:1016400080808080807F80808080808080807F7F9D
:10165000808080808080808080808080808080808A
:10166000808080808080808080808080808080807A
:10167000808080808080808080808080808080806A
:10168000808080808080808080808080808080805A
:101AE000808080802046726565204D656D6F7279BB
:101AF0003A2000546F74616C204D656D6F72793AB5
:101B000020004572726F7220696E20676574746977
:101B10006E6720636C757374657200456E64206F28
:101B20006620436C757374657220436861696E004A
:101B30002046696C652043726561746564210020EC
:101B400046696C6520617070656E64656421002073
:101B50004E6F206672656520636C757374657221C3
:101B60000020456E74657220746578742028656E57
:101B7000642077697468207E293A00204E6F2066C1
:101B800072656520636C7573746572210020437201
:101B9000656174696E672046696C652E2E00202091
:101BA00046696C6520616C7265616479206578694D
:101BB0007374696E672C20617070656E64696E67FE
:101BC00020646174612E2E00496E76616C69642018
:101BD00066696C654E616D652E2E004572726F727E
:101BE00020696E2067657474696E6720636C757315
:101BF000746572004572726F7220696E2067657439
:101C000074696E6720636C757374657200524F4F10
:101C10005400444952002020200046494C450020F1
:101C200020200046696C652064656C6574656421DC
:101C30000044656C6574696E672E2E0046696C659C
:101C400020646F6573206E6F7420657869737421EA
:101C50000020496E76616C6964206F7074696F6EE4
:101C600021002066696C65206E616D6520746F6F60
:101C7000206C6F6E672E2E00456E7465722066694B
:101C80006C65206E616D653A200052656164207359
:101C900075636365737366756C21005265616420BA
:101CA0006661696C65642E2E0057726974652073D5
:101CB00075636365737366756C210057726974652B
:101CC000206661696C65642E2E0020456E74657215
:101CD00020746578742028456E64207769746820C4
:101CE0007E293A0045726173656421004572617313
:101CF00065206661696C65642E2E00456E746572A0
:101D00002074686520426C6F636B206E756D626530
:101D1000722028303030302D39393939293A00468F
:101D200041543332206F7074696F6E73206469732D
:101D300061626C656421003E2053656C65637420AC
:101D40004F7074696F6E2028302D39293A20003E7B
:101D50002039203A2052656164205344204D656D3E
:101D60006F72792043617061636974792028546FC0
:101D700074616C2F4672656529003E2038203A2038
:101D800044656C6574652046696C65003E203720AB
:101D90003A2057726974652046696C65003E2036AA
:101DA000203A20526561642046696C65003E20350A
:101DB000203A204765742066696C65206C697374ED
:101DC000003E2032203A20526561642073696E67BC
:101DD0006C6520426C6F636B003E2031203A2057C7
:101DE000726974652073696E676C6520426C6F63FD
:101DF0006B003E2030203A20457261736520426CB2
:101E00006F636B7300507265737320616E79206B22
:101E100065792E2E2E004641543332206E6F742089
:101E2000666F756E642100556E6B6E6F776E205312
:101E30004420436172642044657465637465642161
:101E4000005374616E646172642043617061636900
:101E500074792043617264202856657220322E788E
:101E60002920446574656374656421004869676866
:101E70002043617061636974792043617264204416
:101E80006574656374656421005374616E64617286
:101E900064204361706163697479204361726420D6
:101EA0002856657220312E78292044657465637444
:101EB000656421004361726420496E697469616CD4
:101EC000697A6174696F6E206661696C65642E2E33
:101ED0000053442063617264206E6F7420646574E3
:101EE00065637465642E2E002A2A2A2A2A2A2A2A41
:101EF0002A2A2A2A2A2A2A2A2A2A2A2A2A2A2A2A42
:101F00002A2A2A2A2A2A2A2A2A2A2A2A2A2A2A2A31
:101F10002A2A2A2A2A002020202053616D65657212
:101F2000206D6963726F534420436172642054656D
:101F30007374696E672E2E2020002A2A2A2A2A2AE4
:101F40002A2A2A2A2A2A2A2A2A2A2A2A2A2A2A2AF1
:101F50002A2A2A2A2A2A2A2A2A2A2A2A2A2A2A2AE1
:101F60002A2A2A2A2A2A2A0011241FBECFE5D8E0CD
:101F7000DEBFCDBF10E0A0E6B0E0E0E5FBE402C0CC
:101F800005900D92AA3BB107D9F712E0AAEBB0E099
:101F900001C01D92A73FB107E1F70E948F1B0C946F
:101FA000A6250C940000EF92FF920F931F932091AF
:101FB000D6023091D702E090BE00F090BF000091B1
:101FC000C0001091C100625070408040904040E0DD
:101FD00050E00E9428219B01AC012E0D3F1D401FA7
:101FE000511FB901CA011F910F91FF90EF90089501
:101FF0008F929F92AF92BF92CF92DF92EF92FF9219
:102000000F93DF93CF93CDB7DEB764970FB6F894F5
:10201000DEBF0FBECDBF982E6A017B01DE01119697
:10202000E0E6F0E084E101900D928150E1F70CE0F0
:102030008CE2882E053011F0093029F4FE01E00F02
:10204000F11D808201505E01A00EB11CC701B601D6
:102050002AE030E040E050E00E9447216063F50153
:102060006083C701B6012AE030E040E050E00E9402
:102070004721C901DA016C017D01C114D104E104D9
:10208000F10411F00150B1F6F1E09F1611F48BE468
:102090008E87CE0101960E94B22064960FB6F89406
:1020A000DEBF0FBECDBFCF91DF910F91FF90EF90BC
:1020B000DF90CF90BF90AF909F908F9008950F9337
:1020C0001F93DF93CF93CDB7DEB72B970FB6F8945E
:1020D000DEBF0FBECDBF8C01582FA12FFC0140E009
:1020E00080818E3219F4493030F00EC04F5F319646
:1020F0004C30B1F709C0BE016F5F7F4F852F9A2F1B
:102100009C01F901DB0108C088EC9BE10E94A8203A
:1021100081E052C081918D938E2F851B8417D0F35F
:10212000842F9E012F5F3F4F90E205C0F901E80F19
:10213000F11D90838F5F8830C9F7242F2F5FAE0188
:102140004F5F5F4F30E2F801E20FF11D908199235C
:1021500059F0FA01E80FF11D90832F5F07C0FA01D3
:10216000E80FF11D30838F5F8B30C8F38F5F8B30AA
:1021700050F39E01245F3F4FFB019081892F8156D0
:102180008A3110F4905290836F5F7F4F621773070C
:1021900099F720E030E0AE014F5F5F4FF801E20FAA
:1021A000F31FDA01A20FB31F8C9180832F5F3F4F83
:1021B0002B30310599F780E02B960FB6F894DEBFEF
:1021C0000FBECDBFCF91DF911F910F9108956F92F8
:1021D0007F928F929F92AF92BF92CF92DF92EF92B7
:1021E000FF920F931F9360783B014C0122E0660C35
:1021F000771C881C991C2A95D1F75B016C0150C093
:10220000E090E102F090E2022091C6003091C70018
:1022100000E010E08091D8029091D902A091DA02FA
:10222000B091DB02E80EF91E0A1F1B1F40E050E0D0
:10223000C401B3010E944721E20EF31E041F151FC3
:10224000C801B7010E94971F60E0E62FF0E0EE0F93
:10225000FF1FEE0FFF1FEA52FF4F80819181A28185
:10226000B381BF700097A105B10539F4A6019501AE
:10227000260F311D411D511D25C06F5F603829F7A4
:1022800080E890E0A0E0B0E0A80EB91ECA1EDB1EF8
:1022900080E092E0A0E0B0E0680E791E8A1E9B1EEE
:1022A0008091C8009091C900A091CA00B091CB0064
:1022B000A816B906CA06DB0608F4A2CF20E030E073
:1022C00040E050E0B901CA011F910F91FF90EF90DB
:1022D000DF90CF90BF90AF909F908F907F906F9046
:1022E0000895CF92DF92EF92FF920F931F93D82E13
:1022F000C62E79018A016091D8027091D90280912D
:10230000DA029091DB026F5F7F4F8F4F9F4F0E94E9
:10231000971F8091D6009091D700A091D800B091DE
:10232000D90082559245A146B14409F054C080912C
:10233000BA029091BB02A091BC02B091BD0282573B
:102340009247A144B14609F046C08091D2029091D3
:10235000D302A091D402B091D50280509040A545FF
:10236000BA4AC9F5CC20A9F481E0D81649F42091E5
:10237000BE023091BF024091C0025091C1022FC0F5
:102380002091C2023091C3024091C4025091C50213
:1023900026C021E0D21649F4E092BE02F092BF02BC
:1023A0000093C0021093C10208C0E092C202F092F2
:1023B000C3020093C4021093C5026091D8027091C9
:1023C000D9028091DA029091DB026F5F7F4F8F4FCD
:1023D0009F4F0E94491F2FEF3FEF4FEF5FEFB90173
:1023E000CA011F910F91FF90EF90DF90CF90089559
:1023F000DF92EF92FF920F931F93D82EDB01CA0159
:10240000E9E0B695A79597958795EA95D1F751702C
:1024100060707070411551056105710519F4AC01CA
:10242000BD0106C0AC01BD014F5F5F4F6F4F7F4FD5
:10243000DB01CA0133E0B695A795979587953A9544
:10244000D1F747705070607070704115510561058B
:10245000710519F47C018D0107C07C018D01089480
:10246000E11CF11C011D111D8091E8028823D9F0A7
:1024700081E060E020E030E040E050E00E94711137
:10248000DD2039F49B01AC012E0D3F1D401F511F73
:1024900006C09B01AC012E193F09400B510B81E096
:1024A00061E00E9471111F910F91FF90EF90DF90FA
:1024B00008952F923F924F925F926F927F928F92E8
:1024C0009F92AF92BF92CF92DF92EF92FF920F93C3
:1024D0001F932091C8003091C9004091CA005091CB
:1024E000CB006091D6027091D70280E090E00E940C
:1024F00028215B016C011AE0D694C794B794A79485
:102500001A95D1F7E090C600F090C7008DE00E94C8
:10251000A4208AE00E94A4208DE00E94A4208AE0EA
:102520000E94A42083EF9AE10E94A82000E010E01E
:10253000C601B501A80197010E942821AB01BC0189
:1025400081E00E94F80F81E060E020E030E040E0B0
:1025500050E00E9471113B014C018091C8009091A4
:10256000C900A091CA00B091CB0086159705A805B7
:10257000B90508F07CC01092E802A090CC00B090A1
:10258000CD00C090CE00D090CF00B2E0AA0CBB1C12
:10259000CC1CDD1CBA95D1F7662477244301222494
:1025A00033242101E090E102F090E2022091C60084
:1025B0003091C70000E010E08091D8029091D902DC
:1025C000A091DA02B091DB02E80EF91E0A1F1B1F70
:1025D00040E050E0C601B5010E944721E20EF31E23
:1025E000041F151FC801B7010E94971FA201910186
:1025F00060E070E0FB01EA52FF4F80819181A2818F
:10260000B381BF700097A105B10529F40894611C3E
:10261000711C811C911C2F5F3F4F4F4F5F4F80916A
:10262000C8009091C900A091CA00B091CB00029659
:10263000A11DB11D281739074A075B07C1F0C90161
:10264000821993096C5F7F4F02E06030700791F64A
:10265000E12CA2E0FA2E012D112DAE0CBF1CC01EE4
:10266000D11E8038910518F019012A019BCF809165
:10267000E802882331F481E061E0A40193010E9423
:10268000711181E08093E8022091D6023091D70247
:1026900040E050E0C401B3010E9428215B016C01BD
:1026A000FAE0D694C794B794A794FA95D1F7E0903E
:1026B000C600F090C7008DE00E94A4208AE00E942E
:1026C000A42084EE9AE10E94A82000E010E0C60158
:1026D000B501A80197010E942821AB01BC0181E04E
:1026E0000E94F80F8DE00E94A4208AE00E94A4209E
:1026F0001F910F91FF90EF90DF90CF90BF90AF9020
:102700009F908F907F906F905F904F903F902F9011
:1027100008956F927F928F929F92AF92BF92CF92C5
:10272000DF92EF92FF920F931F931092D8021092B4
:10273000D9021092DA021092DB0260E070E080E0D1
:1027400090E00E94971F8091D600893E19F18B3E40
:1027500009F18091D4029091D50285559A4A09F0E9
:10276000B0C060919C0270919D0280919E029091F8
:102770009F026093D8027093D9028093DA029093FB
:10278000DB020E94971F8091D600893E19F08B3E94
:1027900009F097C08091E1009091E2009093C7000A
:1027A0008093C6008091E30090E09093D7028093DD
:1027B000D602A090E400B090E500B092E202A092B0
:1027C000E1028091020190910301A0910401B09176
:1027D00005018093CC009093CD00A093CE00B093E0
:1027E000CF00E090E102F090E2026091E60070E03C
:1027F00080E090E02091FA003091FB004091FC00D5
:102800005091FD000E9428213B014C0100E010E0A6
:102810008091F2009091F300A091F400B091F50046
:10282000E80EF91E0A1F1B1FE60CF71C081D191DD8
:10283000E092BE00F092BF000093C0001093C10070
:102840002091D6023091D702CC24DD246091F6008D
:102850007091F7008091F8009091F9006A197B0956
:102860008C099D09661977098809990940E050E0AB
:102870000E944721C901DA018093C8009093C900E2
:10288000A093CA00B093CB0081E060E020E030E08C
:1028900040E050E00E9471112091C8003091C900C1
:1028A0004091CA005091CB002617370748075907B7
:1028B00018F41092E80203C081E08093E80280E0FF
:1028C00001C081E01F910F91FF90EF90DF90CF90BA
:1028D000BF90AF909F908F907F906F9008954F9290
:1028E0005F926F927F928F929F92AF92BF92CF92A0
:1028F000DF92EF92FF920F931F93CF93DF935B01D1
:102900006C01842E280139018091E1029091E2024C
:1029100002E0AA0CBB1CCC1CDD1C0A95D1F720914F
:10292000C6003091C7007C0100E010E08091D80221
:102930009091D902A091DA02B091DB02E80EF91E63
:102940000A1F1B1F40E050E0C601B5010E9447214D
:10295000E20EF31E041F151FC091C600D091C700E0
:102960009924C801B7010E94971F882321F09394EE
:102970008AE09816B1F79E0140E050E0C601B5012B
:102980000E944721FB01EA52FF4F882031F4208149
:102990003181428153815F700CC0408251826282DA
:1029A0007382C801B7010E94491F20E030E040E077
:1029B00050E0B901CA01DF91CF911F910F91FF90B3
:1029C000EF90DF90CF90BF90AF909F908F907F90CF
:1029D0006F905F904F9008952F923F924F925F9229
:1029E0006F927F928F929F92AF92BF92CF92DF921F
:1029F000EF92FF920F931F93DF93CF93CDB7DEB784
:102A00002A970FB6F894DEBF0FBECDBF8D837F83AC
:102A10006E83A090CC00B090CD00C090CE00D0903E
:102A2000CF00815088872091D6023091D702E09064
:102A3000BE00F090BF000091C0001091C100C6011F
:102A4000B501625070408040904040E050E00E94EC
:102A500028211B012C012E0C3F1C401E511E6624F8
:102A60007724430160C1D401C301820D931DA41DCD
:102A7000B51D89839A83AB83BC83BC01CD010E94C1
:102A8000971F40E2E42EF12C3EC18A010A521F4FEB
:102A9000F701EA52FF4FB0978081B096882341F446
:102AA0009D819150923008F068C18CE39CE163C134
:102AB000853E09F424C1759780818F3009F41FC1C8
:102AC000A885A23008F0D2C020E030E0C801820F13
:102AD000931FAE81BF81A20FB31FFC0190818C9127
:102AE000981709F00CC1822F8F5F2F5F3F4F2B305B
:102AF000310561F78B3009F002C1FD81F13009F039
:102B00003FC089819A81AB81BC818093E902909317
:102B1000EA02A093EB02B093EC02CA01A0E0B0E09D
:102B20008093BA009093BB00A093BC00B093BD000B
:102B3000D80154968D919C915597A0E0B0E0DC01AE
:102B400099278827F801228D338D40E050E0822BB1
:102B5000932BA42BB52B8093E3029093E402A093D4
:102B6000E502B093E602848D958DA68DB78D809396
:102B7000C2009093C300A093C400B093C500FFC0EF
:102B80008DE00E94A4208AE00E94A42081E39CE1C1
:102B90000E94A8208DE00E94A4208AE00E94A42028
:102BA0008DE00E94A4208AE00E94A420D8015496BF
:102BB0008D919C915597A0E0B0E05C019924882408
:102BC000F801828D938DA0E0B0E0882A992AAA2A84
:102BD000BB2A85EE808369817A818B819C810E94EA
:102BE000491FD8015C964D915D916D917C915F97E5
:102BF00080E00E94F81182E060E020E030E040E0F8
:102C000050E00E94711186169706A806B90630F4A6
:102C100082E061E0A50194010E947111C501B40137
:102C200040E000E010E020E030E00E946F14F62E5B
:102C3000E72ED82EC92EC501B40141E000E010E016
:102C400020E030E00E946F148F2D9E2DAD2DBC2D05
:102C50004C015D01B7EF8B16BFEF9B06BFEFAB06D4
:102C6000BFE0BB06D8F283E29CE185C08DE00E9404
:102C7000A4208AE00E94A4201A8619860BC0E98548
:102C8000E73019F480E20E94A42089859A85019694
:102C90009A878987E985FA85E00FF11F80810E9474
:102CA000A420A985BA851A9751F78FE19CE10E946B
:102CB000A82087010A521F4F05511040F80180815A
:102CC0000B5E1F4F8031B9F0883019F48DE09CE124
:102CD00014C08AE19CE10E94A82086E19CE10E9448
:102CE000A820F8013497408151816281738180E08E
:102CF0000E94F80F04C082E19CE10E94A82080E2BB
:102D000090E0E80EF91EA701405250408091C600A5
:102D10009091C7004817590708F4B7CE0894611C72
:102D2000711C811C911C8091D6029091D702A0E069
:102D3000B0E0681679068A069B0608F494CEC601B0
:102D4000B50140E000E010E020E030E00E946F14A8
:102D50005B016C0197EFA9169FEFB9069FEFC906BB
:102D60009FE0D90650F4A114B104C104D10409F0C4
:102D70005ACE84EF9BE10E94A82000E010E0C80139
:102D80002A960FB6F894DEBF0FBECDBFCF91DF916C
:102D90001F910F91FF90EF90DF90CF90BF90AF9079
:102DA0009F908F907F906F905F904F903F902F906B
:102DB0000895CF93DF93EC010E945F10882321F4E4
:102DC00082E0BE010E94EC14DF91CF9108952F9212
:102DD0003F924F925F926F927F928F929F92AF92AB
:102DE000BF92CF92DF92EF92FF920F931F93DF93E8
:102DF000CF9300D000D0CDB7DEB7E82E8B01CB014A
:102E00000E945F10882311F082E09EC081E0B8012B
:102E10000E94EC149C01009709F495C081E0E8162B
:102E200009F492C0D90154968D919C915597A0E0D8
:102E3000B0E04C0177246624F901828D938DA0E0E7
:102E4000B0E0682A792A8A2A9B2AD9015C968D915A
:102E50009D910D90BC91A02D89839A83AB83BC83F7
:102E60008DE00E94A4208AE00E94A4208DE00E94B0
:102E7000A4208AE00E94A42022243324210120914E
:102E8000D6023091D702E090BE00F090BF000091D2
:102E9000C0001091C100C401B30162507040804075
:102EA000904040E050E00E9428215B016C01AE0C94
:102EB000BF1CC01ED11E10E028C0C601B501610FA5
:102EC000711D811D911D0E94971F20E030E0F901C6
:102ED000EA52FF4F80818BBB86E491E00197F1F7C6
:102EE00089819A81AB81BC81281639064A065B0626
:102EF00050F50894211C311C411C511C2F5F3F4F81
:102F000092E02030390719F71F5F2091D6023091E7
:102F1000D702812F90E08217930778F2C401B301A2
:102F200040E000E010E020E030E00E946F143B0140
:102F30004C01611571058105910509F0A0CF8BED5C
:102F40009BE10E94A82080E00F900F900F900F90BF
:102F5000CF91DF911F910F91FF90EF90DF90CF9075
:102F6000BF90AF909F908F907F906F905F904F90A9
:102F70003F902F9008952F923F924F925F926F92C1
:102F80007F928F929F92AF92BF92CF92DF92EF92F9
:102F9000FF920F931F93DF93CF93CDB7DEB72797A1
:102FA0000FB6F894DEBF0FBECDBF9F838E8381E046
:102FB0006E817F810E94E716813009F057C08EE94B
:102FC0009BE10E94A8206090E3027090E402809050
:102FD000E5029090E602AA24BB246501C401B30176
:102FE00040E000E010E020E030E00E946F146F3F0E
:102FF0002FEF72072FEF82072FEF920741F008940F
:10300000A11CB11CC11CD11C3B014C01E7CF20917C
:10301000D6023091D7026091C6007091C700E0904F
:10302000C600F090C70080E090E040E050E00E94D1
:103030002821A60195010E9428219B01AC016091E5
:10304000C2007091C3008091C4009091C500621BC2
:10305000730B840B950B00E010E0A80197010E9410
:103060004721B22E21E0AA24A39458C0823009F44B
:1030700023C38DE00E94A4208AE00E94A4208DE852
:103080009BE10E94A82082E060E020E030E040E088
:1030900050E00E9471119B01AC018091C800909199
:1030A000C900A091CA00B091CB0082179307A40772
:1030B000B50740F42091CC003091CD004091CE0076
:1030C0005091CF00CA01B9010E94E7103B014C01A9
:1030D000611571058105910549F48DE00E94A420D8
:1030E0008AE00E94A4208BE79BE1E4C241E00FEF5D
:1030F0001FEF2FEF3FEF0E946F14C401AA27BB27D9
:103100009C838B837A8269821092C2001092C300E2
:103110001092C4001092C50020E0AA241D822B2C1E
:10312000332444245524C401B301625070408040CC
:1031300090402223E9F12091D6023091D702E0900D
:10314000BE00F090BF000091C0001091C100E20CE1
:10315000F31C041D151D40E050E00E942821E60EDE
:10316000F71E081F191FE092D200F092D3000093BF
:10317000D4001093D5006091D2007091D30080915B
:10318000D4009091D5000E94971F2091C6003091E5
:10319000C70040E050E06091C2007091C300809190
:1031A000C4009091C5000E9447218B01EB2C1FC0E9
:1031B0002091D6023091D702E090BE00F090BF007F
:1031C0000091C0001091C10040E050E00E94282111
:1031D000E60EF71E081F191FE092D200F092D300EE
:1031E0000093D4001093D500EE2400E010E08DE0B1
:1031F0000E94A4208AE00E94A42081E69BE10E9414
:10320000A8208D818130E9F48AE00E94A420F80191
:10321000EA52FF4F8AE080830F5F1F4F8091C20008
:103220009091C300A091C400B091C5000196A11D6A
:10323000B11D8093C2009093C300A093C400B093CB
:10324000C5000E949F20F82E98E08917D1F401153F
:103250001105B9F388E00E94A42080E20E94A42016
:1032600088E00E94A420015010408091C2009091FB
:10327000C300A091C400B091C5000197A109B10994
:10328000D8CF0E94A420F801EA52FF4FF0820F5FCE
:103290001F4F8091C2009091C300A091C400B091D3
:1032A000C5000196A11DB11D8093C2009093C3007B
:1032B000A093C400B093C500ADE0FA1621F5B2E0CA
:1032C00000301B0719F4E1E0ED8324C08AE00E947E
:1032D000A420F801EA52FF4F8AE080830F5F1F4F5E
:1032E0008091C2009091C300A091C400B091C5002C
:1032F0000196A11DB11D8093C2009093C300A093BD
:10330000C400B093C500F2E000301F0710F41D8226
:103310002AC01D826091D2007091D3008091D400A8
:103320009091D5000E94491FE3942091D6023091DC
:10333000D7028E2D90E082179307D1F08091D200B2
:103340009091D300A091D400B091D5000196A11D19
:10335000B11D8093D2009093D300A093D400B0937A
:10336000D50000E010E02EE7F21609F04ACF05C0C4
:103370008EE7F816B9F500E010E08091C200909158
:10338000C300A091C400B091C5000197A109B10983
:103390008093C2009093C300A093C400B093C50073
:1033A000B8016150704006C0FB01EA52FF4F108225
:1033B0006F5F7F4F92E060307907B0F36091D20089
:1033C0007091D3008091D4009091D5000E94491F44
:1033D00082E061E0A40193010E947111AA2009F426
:1033E0006FC028C0C401B3010E94E7106B017C01CB
:1033F000611571058105910549F48DE00E94A420B5
:103400008AE00E94A4208FE49BE154C1C401B3016F
:1034100041E0970186010E946F14C701B60141E0A7
:103420000FEF1FEF2FEF3FEF0E946F1420E03601E8
:10343000470179CE6091E9027091EA028091EB0236
:103440009091EC020E94971FE091BA00F091BB00AE
:10345000EA52FF4F2091C2003091C3004091C40056
:103460005091C500848D958DA68DB78D79018A0107
:10347000E81AF90A0A0B1B0B248F358F468F578FDA
:103480006091E9027091EA028091EB029091EC0266
:103490000E94491F81E0B801A7010E94F8118DE048
:1034A0000E94A4208AE00E94A4208FE39BE10E9456
:1034B000A8208DE00E94A4208AE00E94A420FCC0E5
:1034C0008090CC009090CD00A090CE00B090CF0026
:1034D00022242091D6023091D702E090BE00F090D5
:1034E000BF000091C0001091C100C501B40162503D
:1034F00070408040904040E050E00E9428212B0125
:103500003C014E0C5F1C601E711E33248AC0730187
:103510006201C30CD11CE11CF11CC701B6010E9461
:10352000971F00E210E072C0AF014A525F4F2220A5
:1035300019F0DA011C92C0C0F801EA54FF4FE08193
:10354000EE2319F0E53E09F05FC020E030E0BA015B
:10355000620F731FAE81BF81A20FB31F8C91FB015D
:1035600080832F5F3F4F2B30310589F7F801EA52F6
:10357000FF4F759720E221931192119284E896E90A
:1035800081939193A7E3BAE3A193B193B183A0830D
:10359000349681939193B183A08334978B819C81DE
:1035A000918380833696A981BA81A193B19380914A
:1035B000C2009091C300A091C400B091C500808367
:1035C0009183A283B383C701B6010E94491F8DE096
:1035D0000E94A4208AE00E94A4208DE00E94A420E2
:1035E0008AE00E94A42080E39BE10E94A8204091F1
:1035F000C2005091C3006091C4007091C50081E089
:103600000E94F81122242394005E1F4F8091C6006F
:103610009091C700F801B097E817F90708F484CF34
:1036200033942091D6023091D702832D90E08217F7
:10363000930708F46CCFC501B40140E000E010E04E
:1036400020E030E00E946F146B017C01673FBFEF08
:103650007B07BFEF8B07BFE09B0710F16F3FEFEFDA
:103660007E07EFEF8E07EFEF9E07B9F4C501B401B7
:103670000E94E7106B017C01C501B40141E0970194
:1036800086010E946F14C701B60141E00FEF1FEFE2
:103690002FEF3FEF0E946F1403C08BE19BE10AC044
:1036A00046015701C114D104E104F10409F011CF1E
:1036B00082E09BE10E94A82027960FB6F894DEBF17
:1036C0000FBECDBFCF91DF911F910F91FF90EF9073
:1036D000DF90CF90BF90AF909F908F907F906F9032
:1036E0005F904F903F902F9008958FEF8BBB8ABBD8
:1036F0008FEE88BB8FEB87BB15BA14BA12BA8EEF68
:1037000081BB0895F8940E94751B0E9490200E942E
:103710000C210E941C2115BE1BBE19BE0895AF923C
:10372000BF92CF92DF92EF92FF920F931F93DF939E
:10373000CF93CDB7DEB72E970FB6F894DEBF0FBE8E
:10374000CDBF88EE93E028EC30E0F9013197F1F736
:103750000197D9F70E94821B929A8DE00E94A420C3
:103760008AE00E94A4208DE00E94A4208AE00E94AA
:10377000A4208AE39FE10E94A8208DE00E94A4205B
:103780008AE00E94A42086E19FE10E94A8208DE0AB
:103790000E94A4208AE00E94A42088EE9EE10E945C
:1037A000A8208DE00E94A4208AE00E94A42010920C
:1037B000E7020E94C81F882371F0813029F481ED4F
:1037C0009EE10E94A82006C0823021F484EB9EE195
:1037D0000E94A820FFCF8091E702823039F0833029
:1037E00041F0813049F489E89EE108C08CE69EE111
:1037F00005C081E49EE102C087E29EE10E94A8200C
:1038000080E58DB9709A80ED97E00197F1F70E94FD
:103810008913882319F4EE24E3940BC08DE00E94F1
:10382000A4208AE00E94A42086E19EE10E94A820B4
:10383000EE246E010894C11CD11CEEE0AE2EB12C1A
:10384000AC0EBD1E8DE00E94A4208AE00E94A42040
:1038500085E09EE10E94A8208DE00E94A4208AE0DD
:103860000E94A4200E949F208DE00E94A4208AE054
:103870000E94A42082EF9DE10E94A8208DE00E947A
:10388000A4208AE00E94A42089ED9DE10E94A82046
:103890008DE00E94A4208AE00E94A42081EC9DE19A
:1038A0000E94A8208DE00E94A4208AE00E94A4200B
:1038B0008DEA9DE10E94A8208DE00E94A4208AE06C
:1038C0000E94A4208DE99DE10E94A8208DE00E9425
:1038D000A4208AE00E94A4208CE89DE10E94A820F8
:1038E0008DE00E94A4208AE00E94A4208AE79DE146
:1038F0000E94A8208DE00E94A4208AE00E94A420BB
:103900008FE49DE10E94A8208DE00E94A4208AE01F
:103910000E94A4208DE00E94A4208AE00E94A4209E
:1039200087E39DE10E94A8200E949F20F82E0E941C
:10393000A4208F2D8553853098F4EE2089F48DE0F6
:103940000E94A4208AE00E94A4208DE00E94A4206E
:103950008AE00E94A4208FE19DE10E94A82072CFFE
:103960008F2D8053853008F0A2C08DE00E94A420E6
:103970008AE00E94A4208DE00E94A4208AE00E9498
:10398000A4208BEF9CE10E94A8200E949F20082F7A
:103990000E94A42010E00F70107088EE93E09C014C
:1039A000029FC001039F900D129F900D1124AA2722
:1039B00097FDA095BA2F8093D2009093D300A09347
:1039C000D400B093D5000E949F20082F0E94A4200D
:1039D0002091D2003091D3004091D4005091D50075
:1039E00010E00F70107084E690E0BC01069FC001EB
:1039F000079F900D169F900D1124AA2797FDA09563
:103A0000BA2F820F931FA41FB51F8093D2009093EB
:103A1000D300A093D400B093D5000E949F20082F1C
:103A20000E94A4202091D2003091D3004091D40074
:103A30005091D50010E00F701070C80173E0880F2E
:103A4000991F7A95E1F7000F111F800F911FAA2788
:103A500097FDA095BA2F820F931FA41FB51F8093C7
:103A6000D2009093D300A093D400B093D5000E94CD
:103A70009F20182F0E94A4208091D2009091D30003
:103A8000A091D400B091D5001F70810F911DA11D90
:103A9000B11D8093D2009093D300A093D400B09333
:103AA000D5008DE00E94A4208AE00E94A42081E03D
:103AB00090E0A0E0B0E08093DD029093DE02A0935E
:103AC000DF02B093E00275E3F71609F4BAC07F1580
:103AD00060F081E3F81699F122E3F21609F47BC055
:103AE00030E3F31609F019C109C068E36F1508F057
:103AF000B4C079E3F71609F010C10CC16091D2008F
:103B00007091D3008091D4009091D5002091DD0276
:103B10003091DE024091DF025091E0020E94161FB8
:103B2000182F8DE00E94A4208AE00E94A420112377
:103B300019F08CEE9CE149C084EE9CE146C08DE01A
:103B40000E94A4208AE00E94A4208AEC9CE10E94AA
:103B5000A82000E010E00E949F20F82E0E94A420E0
:103B6000F801EA52FF4FF0820F5F1F4F8DE0F81609
:103B700051F48AE00E94A420F801EA52FF4F8AE043
:103B800080830F5F1F4F22E00030120719F03EE7DD
:103B9000F31609F76091D2007091D3008091D400A0
:103BA0009091D5000E94491F182F8DE00E94A420FB
:103BB0008AE00E94A4208DE00E94A4208AE00E9456
:103BC000A420112329F08BEB9CE10E94A820BBC00C
:103BD00089EA9CE1FACF6091D2007091D300809184
:103BE000D4009091D5000E94971F182F8DE00E945D
:103BF000A4208AE00E94A420112319F08BE99CE103
:103C0000E4CF00E010E0F801EA52FF4F80818E37E8
:103C100049F080810E94A4200F5F1F4F62E00030B6
:103C2000160789F78DE00E94A4208AE00E94A42054
:103C30008DE00E94A4208AE00E94A4208AE89CE1F2
:103C4000C4CF8DE00E94A4208AE00E94A42080E0DE
:103C500060E070E00E94EC1476C08DE00E94A42029
:103C60008AE00E94A4208DE00E94A4208AE00E94A5
:103C7000A42088E79CE10E94A820F6011192EA1591
:103C8000FB05E1F700E010E00E949F20982F8D30A7
:103C900029F1883079F401151105B1F388E00E940B
:103CA000A42080E20E94A42088E00E94A420015069
:103CB0001040EACF80528F3538F7892F9E870E94B7
:103CC000A420F601E00FF11F9E8590830F5F1F4F28
:103CD0000D301105C9F682E69CE177CF0D30110554
:103CE00090F58DE00E94A4208AE00E94A42076E353
:103CF000F71629F480E0B6010E94E71624C087E396
:103D0000F81621F4C6010E94BB171DC0C6010E940F
:103D1000D91619C00E94591216C08DE00E94A42025
:103D20008AE00E94A4208DE00E94A4208AE00E94E4
:103D3000A42081E59CE10E94A8208DE00E94A4209F
:103D40008AE00E94A4208DE00E94A4208AE00E94C4
:103D5000A42078CDDF92EF92FF920F931F93D82E7D
:103D60007A018B018091DC028823B9F48D2D815179
:103D7000823060F088E1D81649F089E1D81631F038
:103D800080E2D81619F081E2D81639F439E0EE0C49
:103D9000FF1C001F111F3A95D1F7C1988D2D80642B
:103DA0000E949420812F9927AA27BB270E94942044
:103DB000C801AA27BB270E949420BB27A12F902FC0
:103DC0008F2D0E9494208E2D0E94942088E0D8167A
:103DD00011F487E801C085E90E94942010E002C038
:103DE0001150D1F00E949920082F8F3FC9F38823EA
:103DF00099F48AE3D81681F40E94992086FF04C0C2
:103E000081E08093DC0202C01092DC020E949920C3
:103E10000E9499200E9499200E949920C19A802F87
:103E20001F910F91FF90EF90DF900895AF92BF9296
:103E3000CF92DF92EF92FF920F931F937B018C0141
:103E400059016A0180E2B801A7010E94AA1E8823D5
:103E5000B9F40894E108F10801091109EA0CFB1C06
:103E60000C1D1D1D81E2B801A7010E94AA1E882316
:103E700039F486E240E050E060E070E00E94AA1E63
:103E80001F910F91FF90EF90DF90CF90BF90AF9078
:103E90000895CF93DF93AB01BC0188E10E94AA1E75
:103EA000882311F0982F3FC0C1988EEF0E94942074
:103EB000C0E0D0E0FE01EA52FF4F80810E949420D2
:103EC000219682E0C030D807A9F78FEF0E94942096
:103ED0008FEF0E9494200E949920982F8F71853037
:103EE00041F0C19A20C08FEFCF3FD80791F02196C3
:103EF00002C0C0E0D0E00E9499208823A1F3C19ABB
:103F00008FEF0E949420C19808C08FEFCF3FD80751
:103F100019F4C19A91E007C021960E949920882344
:103F2000A1F3C19A90E0892FDF91CF9108951F935B
:103F3000CF93DF93AB01BC0181E10E94AA1E182F31
:103F4000882309F5C198C0E0D0E005C0219719F495
:103F5000C19A11E018C00E9499208E3FB9F7C0E0C5
:103F6000D0E00E949920FE01EA52FF4F8083219603
:103F700082E0C030D807A9F70E9499200E949920BA
:103F80000E949920C19A812FDF91CF911F910895AE
:103F90001F93CF93DF938DE00E94A4208AE00E94BC
:103FA000A42000D088E790E0ADB7BEB712969C93EE
:103FB0008E9311970E94B52110E00F900F908FEF14
:103FC0000E9494201F5F1A30D1F7C198C0E0D0E062
:103FD00080E040E050E060E070E00E94AA1E219680
:103FE000C132D10511F481E097C0813089F78DE0AD
:103FF0000E94A4208AE00E94A42000D089E890E0DA
:10400000EDB7FEB7928381830E94B521C19A0F90CC
:104010000F908FEF0E9494208FEF0E949420C0E0B9
:10402000D0E088E04AEA51E060E070E00E94AA1E19
:104030002196CF3FD10559F48DE00E94A4208AE05B
:104040000E94A42081E08093E70211E003C0813048
:1040500041F712E0C0E0D0E087E340E050E060E0EC
:1040600070E00E94AA1E89E240E050E060E070E447
:104070000E94AA1E2196CF3FD10541F48DE00E94F7
:10408000A4208AE00E94A42082E046C0882321F771
:104090001092DC02123009F03FC0C0E0D0E08AE3A9
:1040A00040E050E060E070E00E94AA1E2196CF3F01
:1040B000D10549F48DE00E94A4208AE00E94A4204A
:1040C0001092E70202C0882351F78091DC02813010
:1040D00011F482E001C083E08093E7028DE00E944A
:1040E000A4208AE00E94A4202091E70200D000D002
:1040F000EDB7FEB7319689E990E0ADB7BEB712963D
:104100009C938E931197228313820E94B52180E0A5
:104110000F900F900F900F90DF91CF911F91089506
:1041200082E58DB91EB808958FB9779BFECF8FB108
:1041300008958FEF8FB9779BFECF8FB108955F9B66
:10414000FECF8BB18CB108955D9BFECF8CB90895E5
:10415000FC0104C05D9BFECF31968CB9849188230D
:10416000C9F70895FC0104C05D9BFECF31968CB960
:1041700080818823C9F70895DF93CF93CDB7DEB749
:104180002B970FB6F894DEBF0FBECDBF813011F470
:1041900094E005C0823011F498E001C092E0DE01A5
:1041A0001196E8EAF0E08BE001900D928150E1F782
:1041B0009E012E5F3F4F842F8F70E92FF0E08A30F1
:1041C00020F4E20FF31F805D03C0E20FF31F895C50
:1041D0008083915041F084E0769567955795479597
:1041E0008A95D1F7E8CFCE0101960E94B2202B9696
:1041F0000FB6F894DEBF0FBECDBFCF91DF9108950B
:104200005D9BFECF8CB980E090E008955F9BFECF70
:104210008CB18CB190E008951AB81BB886E880BDC7
:104220008DE489B910BC88E18AB980E091E266E04A
:1042300071E20E946921089580E281BB81E88FBD0F
:1042400089E08EBD1BBC1ABC08959BBD8ABD089534
:10425000629FD001739FF001829FE00DF11D649F6A
:10426000E00DF11D929FF00D839FF00D749FF00DF6
:10427000659FF00D9927729FB00DE11DF91F639F97
:10428000B00DE11DF91FBD01CF0111240895A1E278
:104290001A2EAA1BBB1BFD010DC0AA1FBB1FEE1FC0
:1042A000FF1FA217B307E407F50720F0A21BB30B0B
:1042B000E40BF50B661F771F881F991F1A9469F787
:1042C00060957095809590959B01AC01BD01CF01E3
:1042D00008950F931F93CF93DF938C01EB01009709
:1042E00031F46115710519F420E030E038C081E047
:1042F00090E06EE070E00E94A723FC019C01009713
:1043000071F180E88383209771F0D387C28781E8B9
:1043100083838091ED029091EE02892B21F4F0933A
:10432000EE02E093ED0201151105C9F01187008737
:104330008381826083838091EF029091F002892BC8
:1043400071F4F093F002E093EF028091F10290910A
:10435000F202892B21F4F093F202E093F102C901F9
:10436000DF91CF911F910F910895A0E0B0E0EBEBAA
:10437000F1E20C947F25FE01359661917191809157
:10438000EF029091F002AF010E94CA212096E2E074
:104390000C949B25ABE0B0E0E0EDF1E20C946F25CE
:1043A0003C012B015A01FC0117821682838181FD99
:1043B00003C06FEF7FEFC6C19AE0892E1E010894FB
:1043C000211C311CF3012381F20123FD859123FF80
:1043D00081912F01882309F4B2C1853239F423FD7C
:1043E000859123FF81912F01853229F490E0B3015B
:1043F0000E94E524E7CF982FFF24EE249924FFE1C3
:10440000FF15D0F09B3269F09C3228F4903259F0BD
:10441000933291F40EC09D3249F0903369F441E03B
:1044200024C052E0F52A84E0F82A28C098E0F92A4E
:1044300025C0E0E1FE2A22C0F7FC29C0892F805365
:104440008A3070F4F6FE05C0989C902C1124980ECA
:1044500015C0E89CE02C1124E80EF0E2FF2A0EC003
:104460009E3229F4F6FC6BC140E4F42A07C09C3666
:1044700019F450E8F52A02C0983649F4F20123FDF8
:10448000959123FF91912F01992309F0B8CF892F9E
:104490008554833018F08052833038F444E050E083
:1044A000A40EB51E5FE359830FC0933631F09337E6
:1044B00079F0933509F056C020C0F50180818983D9
:1044C00042E050E0A40EB51E610101E010E012C010
:1044D000F501C080D180F6FC03C06FEF7FEF02C012
:1044E000692D70E042E050E0A40EB51EC6010E94A6
:1044F000DA248C015FE7F52214C0F501C080D18079
:10450000F6FC03C06FEF7FEF02C0692D70E042E060
:1045100050E0A40EB51EC6010E94C8248C0150E8CC
:10452000F52AF3FE07C01AC080E290E0B3010E94B2
:10453000E524EA948E2D90E008171907A8F30EC021
:10454000F601F7FC8591F7FE81916F0190E0B301D0
:104550000E94E524E110EA94015010400115110574
:1045600079F7EAC0943611F0993669F5F7FE08C07C
:10457000F501208131814281538184E090E00AC0BD
:10458000F501808191819C01442737FD4095542F8E
:1045900082E090E0A80EB91E9FE6F92257FF09C0FD
:1045A00050954095309521953F4F4F4F5F4FE0E834
:1045B000FE2ACA01B901A1012AE030E00E941125BA
:1045C000D82ED21840C0953729F41F2D1F7E2AE01F
:1045D00030E01DC01F2D197F9F3661F0903720F409
:1045E000983509F0ACC00FC0903739F0983709F012
:1045F000A6C004C028E030E00AC0106114FD1460B9
:1046000020E130E004C014FD166020E132E017FF25
:1046100008C0F501608171818281938144E050E09E
:1046200008C0F50180819181BC0180E090E042E00A
:1046300050E0A40EB51EA1010E941125D82ED2185B
:104640008FE7F82EF122F6FE0BC05EEFF522D914AB
:1046500038F4F4FE07C0F2FC05C08FEEF82202C069
:104660001D2D01C0192DF4FE0DC0FE01ED0DF11D33
:104670008081803319F499EEF92208C01F5FF2FEA1
:1046800005C003C08F2D867809F01F5F0F2DF3FC46
:1046900014C0F0FE0FC01E1510F09D2C0BC09D2CF9
:1046A0009E0C911A1E2D06C080E290E0B3010E947C
:1046B000E5241F5F1E15C0F304C01E1510F4E11A97
:1046C00001C0EE2404FF0FC080E390E0B3010E941C
:1046D000E52402FF1DC001FD03C088E790E00EC085
:1046E00088E590E00BC0802F867891F001FF02C032
:1046F0008BE201C080E2F7FC8DE290E0B3010E9402
:10470000E52406C080E390E0B3010E94E5249A947A
:10471000D914C0F3DA94F101ED0DF11D808190E020
:10472000B3010E94E524DD20A9F706C080E290E0F5
:10473000B3010E94E524EA94EE20C1F743CEF301D1
:1047400066817781CB012B96E2E10C948B250F9348
:104750001F93CF93DF93689F8001699F100D789F0F
:10476000100D1124C8010E94C323EC01009729F009
:1047700060E070E0A8010E94D324CE01DF91CF91C8
:104780001F910F910895CF93DF93BC018230910563
:1047900010F462E070E0A091F502B091F602ED0134
:1047A000E0E0F0E040E050E021C088819981861788
:1047B000970769F48A819B81309719F093838283EC
:1047C00004C09093F6028093F502FE0134C068178E
:1047D000790738F44115510519F08417950708F445
:1047E000AC01FE018A819B819C01E9012097E9F6D9
:1047F00041155105A9F1CA01861B970B049708F4CE
:10480000BA01E0E0F0E02AC08D919C9111978417E5
:104810009507F9F46417750781F412968D919C91B0
:104820001397309719F09383828304C09093F60214
:104830008093F502FD0132964FC0CA01861B970B8B
:10484000FD01E80FF91F6193719302978D939C937B
:1048500043C0FD01828193819C01D9011097A1F68B
:104860008091F3029091F402892B41F48091B5007C
:104870009091B6009093F4028093F3024091B700B8
:104880005091B8004115510541F44DB75EB7809184
:10489000B3009091B400481B590B2091F302309162
:1048A000F40224173507B0F4CA01821B930B861754
:1048B000970780F0AB014E5F5F4F8417950750F06C
:1048C000420F531F5093F4024093F302F901619396
:1048D000719302C0E0E0F0E0CF01DF91CF91089545
:1048E000CF93DF93009709F450C0EC0122971B820D
:1048F0001A82A091F502B091F602109709F140E0FA
:1049000050E0AC17BD0708F1BB83AA83FE012191DB
:104910003191E20FF31FAE17BF0779F48D919C918F
:104920001197280F391F2E5F3F4F39832883129626
:104930008D919C9113979B838A834115510571F446
:10494000D093F602C093F50220C012968D919C91EF
:104950001397AD01009711F0DC01D3CFFA01D38397
:10496000C28321913191E20FF31FCE17DF0769F463
:1049700088819981280F391F2E5F3F4FFA013183BB
:1049800020838A819B8193838283DF91CF910895D5
:10499000FC010590615070400110D8F7809590950A
:1049A0008E0F9F1F0895DC0101C06D934150504050
:1049B000E0F70895FC016150704001900110D8F7B4
:1049C000809590958E0F9F1F08950F931F93CF93FF
:1049D000DF938C01EB018B8181FF1BC082FF0DC037
:1049E0002E813F818C819D812817390764F4E881ED
:1049F000F9810193F983E88306C0E885F985802F62
:104A00000995892B31F48E819F8101969F838E8336
:104A100002C00FEF1FEFC801DF91CF911F910F91DF
:104A20000895FA01AA27283051F1203181F1E89444
:104A30006F936E7F6E5F7F4F8F4F9F4FAF4FB1E091
:104A40003ED0B4E03CD0670F781F891F9A1FA11D8C
:104A5000680F791F8A1F911DA11D6A0F711D811D8D
:104A6000911DA11D20D009F468943F912AE0269F52
:104A700011243019305D3193DEF6CF010895462FB1
:104A80004770405D4193B3E00FD0C9F7F6CF462F92
:104A90004F70405D4A3318F0495D31FD40524193FB
:104AA00002D0A9F7EACFB4E0A695979587957795B8
:104AB0006795BA95C9F700976105710508959B013F
:104AC000AC010A2E06945795479537952795BA95C8
:104AD000C9F7620F731F841F951FA01D08952F92A1
:104AE0003F924F925F926F927F928F929F92AF927E
:104AF000BF92CF92DF92EF92FF920F931F93CF93CB
:104B0000DF93CDB7DEB7CA1BDB0B0FB6F894DEBF61
:104B10000FBECDBF09942A88398848885F846E8487
:104B20007D848C849B84AA84B984C884DF80EE80D1
:104B3000FD800C811B81AA81B981CE0FD11D0FB6DA
:104B4000F894DEBF0FBECDBFED010895F894FFCFFE
:104B500020202020202020202020202020204279DA
:104B600074657300901A0000496E697469616C691C
:104B70007A696E672053444300496E697469616CB9
:104B8000697A6564205344430063617264205479F8
:104B90007065203D202563003078202020202020D3
:0A4BA0002020002000F702000000B2
:00000001FF
